:020000042000DA
:1000000000980020A1040020A9040020C1040020C1
:1000100000000000000000000000000000000000E0
:10002000000000000000000000000000D9040020D3
:100030000000000000000000F1040020F304002094
:10004000072C0020012D00200D310300EF2C002093
:100050006F2C00208D310300192D0020212D002050
:10006000F5040020F50400205B2D0020AD310300D5
:1000700057810200F5040020F5040020F50400205B
:10008000F5040020F5040020F50400206B23002077
:100090006F23002073230020772300207B23002080
:020000042000DA
:100160003200000027050020AB190020890800207C
:10017000000000000000000063800200BD8002005B
:100180000B0E0020FB800200198102003581020065
:100190005D810200792B00200D050020F70D002065
:1001A000010E002000000000000000003F000000E1
:1001B000F48B002000040000740B080048010000CC
:1001C0006807080000040000C80C080020050000B3
:1001D000000000002000000048000000580000005F
:1001E0006800000004010000160100002801000062
:1001F0002E010000202A00008E2E000001000000C9
:1002000088130000351A002005390020DF3D00204A
:100210000715002019280300A5740200C129002039
:1002200003000000D5200200890800200100000022
:10023000D74902000F490200E92F0020DF3E0020CD
:1002400023400020E3400020078202007182020068
:10025000DA510020AD830200938402004185020040
:1002600015860200378602005F860200758602004E
:10027000F9870200258902005D8A0200D38C020002
:10028000098D02000F900200438D0200278E0200AC
:10029000F98E0200478F0200550D0020D58F020015
:1002A000FF3B0020775102002F5202001000000097
:1002B00020030000803E000000000000000000005D
:020000042000DA
:1002C000504600030003983A6400F401B80B000C98
:1002D000B80B120030003000CD009A01120024004B
:1002E00030006400B0001800280012001200D0078F
:1002F0000000FFFF00000000000000000000000000
:100300001F000002444131343538302D30310000B7
:1003100000000000000000000000000000000000DD
:0403200000000000D9
:020000042000DA
:10034000FFFF010000C201000000000000000000EB
:100350000000F4010100011B0A071AFFD200021578
:10036000585CDE931B0142CC9A1325009BEDC65EC0
:1003700000010002C5000000000009FF00605257A4
:100380002D424C450000000000000000000000006D
:100390000000000000000000000044413134353806
:1003A00078000000000000000000000000000000D5
:1003B000000000000000000000000000000000003D
:1003C000000000000000000000000000000000002D
:1003D0000000000000000000010000CAEA80D00711
:0403E000064064323D
:020000042000DA
:100440000348854604F008FC00480047C720020026
:10045000009800200E4906200880FF200D49013039
:1004600008600D4988683E2290432E308860002243
:10047000052000070280018A0F231B021943018215
:1004800001210648C90404C1401EFCD562B670476C
:100490000034005080E100E000330050FF0B00000A
:1004A000154880471548004704207146084203D08C
:1004B000EFF3098012490847EFF308801049084715
:1004C00004207146084203D0EFF309800D49084724
:1004D000EFF308800B49084704207146084203D017
:1004E000EFF3098008490847EFF3088006490847F9
:1004F000FEE7FEE7FEE7000055040020410400206F
:100500008D0800202D0A00206B10002010B5C7496F
:100510000020086000F019FC01208007016B4900F1
:100520004908016310BD1CB5C14801210170C149D2
:100530000820088004F0A2FB01F0E3FBFF210D205E
:100540000131800104F0A0FB02F06FFA002801D114
:1005500002F052FA00F0D9FAB74801780170B748B2
:1005600001780170012004F095FB01F081F900F0A1
:1005700031FB042000F007F9072000F004F90A20FD
:1005800000F001F9062000F0FEF80B2000F0FBF867
:10059000012000F0F8F8022000F0F5F8002000F04B
:1005A000F2F8A748006804F07BFB00F00AFD00F0B9
:1005B0003CFD01208007016882151143016000F0B5
:1005C000C7F9142000F07FFB142000F08AFB02F032
:1005D00022FDFFF79BFF002005242407E0829948B5
:1005E0004188E0229143A0314180012004F05EFB6C
:1005F0000227954E04252089000622D50120800778
:10060000006B00041DD404F057FBC00719D104206F
:1006100004F058FB019004F05BFB019800280CD01B
:1006200000200190142000F05CFB042101A804F0DC
:1006300055FB002801D000F09BFB00F0ABF8002830
:10064000D9D172B602F0E2FB69460870042806D0E0
:1006500002280CD003280AD001287DD091E07B48E5
:100660000078012802D00320087000E00F70208A73
:10067000284320827648C0690128087811D90328C8
:1006800049D104F031FB002845D004F033FB0028A9
:1006900041D0032004F034FB00283CD06D480770A3
:1006A00008E0032837D104F02BFB002833D0694938
:1006B00001200870306928433061608A2021884316
:1006C0006082208A3843208268460078618A022846
:1006D00023D0294361827F212288890180231A4304
:1006E00022800022521CD2B20A2AFBD3628A102333
:1006F0001A436282584A491E5161218880229143DF
:1007000021800021554A032811700DD0022812D0F3
:10071000032810D02DE06846C1E729436182618A31
:10072000102291436182ECE7608A802290436082CC
:10073000608AA843608243484288FF2301339A437A
:1007400042806288464B1A80428801231A434280C5
:1007500001910198401C00E012E001901428F8DBA0
:10076000608980088000401C608160894006FCD55B
:10077000618030BF00F0D2F83069A843306100E0FA
:1007800030BF62B637E7C106C90E0120884035493F
:1007900008607047FEB5344C002520782E460128AD
:1007A00006D13248406B002802D1267002F07EFC50
:1007B0002F4801882F4A1288914214D321780129A9
:1007C00011D106800421684601700E214170032179
:1007D00081700121C170284981800022062104F026
:1007E00095FA02F053FD04F073FA244F3888244C34
:1007F00001280AD104F090FA2249088020800120C3
:1008000004F090FA04F094FA3E8004F097FA00287D
:1008100007D06068411E6160002800DD0125284680
:10082000FEBD012564206060F9E700008C0308002C
:10083000F41108000033005000000800202A0800CE
:10084000049000202000005000ED00E05402080059
:10085000E0010020C4060800008000401A120800D1
:100860001C12080080E200E03454002090030800CD
:100870003A540020385400204040000048540020E2
:100880000C5400207804080070470000052212076D
:10089000118A042319431182118A022319431182F8
:1008A0001189402319431181184B01211960184BFC
:1008B00008211980518A8023194351821549036800
:1008C0000B6143684B6183688B61C368CB610369CB
:1008D0000B6243694B6283698B62C369CB620863B5
:1008E0000D48836A4B63C36A8B63036BCB63C36B33
:1008F000084940310B60436B4B60806B8860908A85
:10090000800601D500BE7047FEE7000080E200E0EF
:10091000003300504018080000ED00E03E48017828
:10092000002902D08021417070473C4900200870A6
:100930003B49C870704738480178002902D08121AE
:10094000417070473549012008703549C8707047BB
:1009500031480178002902D08221417070472F4927
:10096000022008702E490120C87070472A488178FB
:10097000002904D0491E0906090E817017D142785A
:100980000021002A04D09207920F0270417004E007
:100990000278002A01D0521E02701206120E017057
:1009A00005D0012A02D0022A01D1D1E7C3E770475E
:1009B00010B5194CA078401CA0702078002805D1F3
:1009C00004F0BCF9421CFFF7A9FF227010BD1249C8
:1009D0000120C870704710490020C87070470E4849
:1009E000C07870470020EFF31081012282F3108855
:1009F000052212071289120605D40A48028901232A
:100A00001A4302811846002900D0012181F3108881
:100A10007047054800787047F51108005402080037
:100A2000C6060800003300501812080005221207FD
:100A3000518A802319435182124903680B6043682D
:100A40004B6083688B60C368CB6003690B6143694B
:100A50004B6183698B61C369CB6108620A48836A11
:100A60004B62C36A8B62036BCB62C36B0B63436BDA
:100A70004B63806B8863908A800601D500BE704707
:100A8000FEE700000018080000ED00E070B54748E0
:100A90000021417001700421454B817018694E1F7F
:100AA000002801D0304600E00120C117020F0901E3
:100AB0001143020118613F480468456822432943F5
:100AC000026041605969002900D10126F117F20E38
:100AD00049015E611143046872014368224319436E
:100AE0000260416070BD38B5002403220223120267
:100AF00004212046009401F0A3F9002201230521DE
:100B00001046009401F09CF938BD10B50524240767
:100B1000208A022188432082A08A0007FCD526482B
:100B20004188FF22013211434180A088802108437F
:100B3000A0800321092004F007F900F0A2FAFFF7D2
:100B4000D2FF608A20210843608210BD1B484168A3
:100B500006229143091D4160416801221143416011
:100B6000416838221143416041684022914341600D
:100B700041680322520211434160416882151143CA
:100B8000416041680722D20211434160416802146A
:100B90009143416001150A4801600A4A1068FF2329
:100BA0001B04984310600848016070476854002097
:100BB0002090002018540020200000500002004027
:100BC00000E100E008E400E080E200E0CC49AA2077
:100BD0004860704770B505210907088930229043A5
:100BE00008810889802318430881088980088000CB
:100BF000401C08810889082210430881C1480488E4
:100C00001C4304804C8A94434C820D894024254324
:100C10000D810D8A0426B5430D828D8AAD07FCD562
:100C2000B74EAA2575608588F026B543B035858016
:100C3000858803263602B543FF35013585808588D2
:100C40002D092D01858085880126B60235438580D2
:100C50008588760035438580858876003543858094
:100C60004D8A95434D8202885208520002800288C4
:100C70009A4302800A89A2430A814089800503D5EC
:100C8000A049052060318880012080070168821515
:100C9000914301609C4801683F22520291434214F3
:100CA00089180160016802031143016070BD0321CE
:100CB000964809028181082242800021491C962918
:100CC000FCD38280704792494880088803221043F1
:100CD0000880088804221043088089490120087090
:100CE00070477CB5864C217800292DD088490A8828
:100CF0005207FCD4CA880092898801911104019A94
:100D00008918009183494843009904F023F8009022
:100D1000002020700098A060009803F0F6FE0546C1
:100D200029467D4803F024FE0A2103F05FFE03F00C
:100D30000CFFE060284603F01CFF784A784B04F073
:100D40000FF803F02AFF20617CBD10B5754804F050
:100D50000DF810BD70B56B4C6088C006050F04F02F
:100D60000BF861881E2291436A001143618070BDB7
:100D700010B56D490120C863C86B0028FCD1012063
:100D80008007C16969480268914201D2002202606D
:100D900019238A1ADB019A4212D3016003F0BCFFC7
:100DA000634A1188884201D9411A00E0091A89B2C0
:100DB000182905D31080012003F0B4FF03F0B8FF19
:100DC00010BD08B54E49896848435A4903F0C2FF2F
:100DD000009008BD08B54A490122D203C968904273
:100DE00005D304F0D3F98905800A084301E048439C
:100DF000800A009008BD08B5FFF7E3FF009008BD2A
:100E000008B5FFF7E7FF009008BD08B54A49012083
:100E10004A695206D20F13D04A699206D20F0FD0F8
:100E200000220A610092FF225F32009B5B1C00934C
:100E30009342FAD34969C907C90F02D003F0A2FF50
:100E4000002008BD40183721C00009014018704734
:100E500010B53A4A0020117800290DD032490120FE
:100E6000C863C86B0028FCD101208007C0693449E1
:100E70000968884201D2012010BD0020107003F0E3
:100E80005DFF022803D003F059FF01280BD12D4943
:100E90000820088005200007818A8906FCD4418A41
:100EA000802291434182002010BD0020704708B588
:100EB00014494A8801231A434A8000210091491CA1
:100EC00000911429FBDB052109074A899208920049
:100ED000521C4A814A895206FCD54B89042213438D
:100EE0004B814880488990434881888A0006FCD518
:100EF000488980088000488148890006FCD508BDE3
:100F0000FC1108002000005000020040203000507A
:100F1000001600500024F400002474497B14AE47EE
:100F2000E17A443FE2040000C00000407C04080075
:100F30007804080040420F0000100050F41108002F
:100F40001454002000330050FFB581B01F460E46F8
:100F50004D780C78002003F01BFF042824D00028D3
:100F60001DD121E05F48816A2E20604309188888DE
:100F70000207120F130003F011FF070505050F0507
:100F80000F050F008204920E062A05D27278012AFC
:100F900012D0072210438880641C6407640F28461F
:100FA0006D1EEDB20028DDD13B463146039A019813
:100FB00003F0FAFE05B0F0BD204603F0FBFE002072
:100FC000F8E770B548480378021D0021474D07E057
:100FD000CC00165D002E01D12418A560491CC9B2B1
:100FE0009942F5D370BD70B505460C46103C3F20C4
:100FF00003F0CEFE00280FD03D488068322806D985
:101000003C498D4201D03C2801D9002070BD2146C9
:10101000374803F0D5FE06E0204603F0D7FE012155
:101020003F2003F0D9FE012070BD10B52E490B788A
:101030000A1D002005E0C400145D3F2C04D0401CB4
:10104000C0B29842F7D310BD284AC00010324018F1
:10105000826010BD028908892749101A80B288422F
:1010600001D9012070470020704781692039897FAC
:10107000082905D21D4A89002032515881617047E4
:10108000FEE71F481D4901611E4941611E498161FA
:101090001E49C1611E4901621E4941621E498162A9
:1010A0001E49C1621E4901631E4941631E49816395
:1010B0001E49C1631C4912485C31403001601C4923
:1010C00041601C4981601C49C16001201B49C00668
:1010D00008601B49CA691202120ACA61174980399D
:1010E0000860704718030800040608002853002011
:1010F00080040800103400003075000094270300BD
:101100000084004062B600DF28A30200704701DFC0
:101110001CCA0200F8BD02DF40CB0200F5E703DF86
:1011200084D4020004DF89B0BC330200F8BD05DFBF
:10113000F8BD06DFEC0C030070BD07DF80E100E0C6
:1011400000ED00E070B516460D46104603F020FE97
:10115000002869D0340A304603F01AFE012812D064
:10116000A87A1E2811D029460A310E2845D019DC4C
:10117000801E030003F012FE0B255829582D58310C
:101180005839583D5800022070BD3146274803F0B9
:1011900029FE0021204603F02BFE0221304603F0F9
:1011A0001BFE41E018283CD006DC102819D012287C
:1011B0002BD0162838D130E0522822D0D22833D173
:1011C00027E0204603F01AFE2EE0204603F01CFE26
:1011D0002AE0204603F01EFE26E0204603F020FE13
:1011E00022E0204603F022FE1EE0204603F024FE0B
:1011F0001AE0204603F026FE16E0204603F028FE03
:1012000012E0204603F02AFE0EE0204603F02CFEFA
:101210000AE0204603F02EFE06E0204603F030FEF2
:1012200002E0204603F032FE002070BD01280000DD
:10123000F8B50D46064681002B48EA884458521CF2
:1012400020686B89018F294F51430091014640313D
:101250004A89C989511A8AB2991A89B2B94214D2F3
:101260009A4212D0294603F017FE2D892049009892
:1012700003F070FD2818801C4034E0823002401CCE
:1012800080B2042103F0A8FDF8BD2821304603F008
:1012900009FEF8BDF8B50546870013480C46C0594D
:1012A000C9880068114E024640325389D2899A1A81
:1012B00092B28B1A9BB2B34211D20B4E8A420ED01D
:1012C00003F0F6FDF05905225F30611C03F0F6FDD6
:1012D0002802401C80B2052103F07EFDF8BD2821C4
:1012E000284603F0DFFDF8BD4C030800FF7F000037
:1012F0001027000070B50446007800250D2801D0A5
:101300000A2200E002225A494B7A002B06D00D280F
:1013100004D0637C032B01D0432551E0097A8A4332
:1013200039D10D2809D00E2802D00F2803D134E07E
:10133000607C032804D3402542E0607C0328FAD86F
:10134000A07C0428F7D20A2908D0607C012822D08A
:10135000022820D06078032809D811E003F0B4FDFA
:10136000012806D16078032803D0002801D0492540
:1013700026E003F0A9FD002802D160780228F6D803
:101380003020035D22462046E17C3132143000F0EB
:1013900019F8054614E0422512E003F095FD0128F6
:1013A00007D16078052804D1A01D03F093FD002823
:1013B000DDD003F089FD002802D160780228D6D85C
:1013C000284670BDFFB5002086B001216A46117025
:1013D000044605910021002C06D0089D099A1F2380
:1013E0009A4234D9402032E01C23069D079AF7E741
:1013F0006B185E78330003F0D1FC1D26101010101E
:1014000010101010102626262626262626262626EA
:1014100026261010101010102600059B03E06F46C2
:10142000FF5CB74204D05B1E5BB2002BF7DA03E02F
:10143000002B01DB4A2006E0059B6F46FE54059B0E
:101440005B1CDBB205936B5C491C5918C9B2914215
:1014500001D20028CCD0914202D04A200AB0F0BD7F
:10146000641CE4B2022CF9D20028B3D0F6E70000E5
:101470009805080070B5EFF31085012080F31088FF
:10148000264803F02DFD0446002D1DD0012080F3D9
:101490001088002C23D020462038C08B2049884259
:1014A0001DD16189208903F021FD05000ED0214660
:1014B0001031A38962892089A847002806D0012815
:1014C0000DD002280BD105E00020E0E7204603F014
:1014D00013FD04E0114821460C3003F071FCEFF3DA
:1014E0001084012080F310880C480068002802D185
:1014F000012003F007FD002C03D0012080F31088A9
:1015000070BD0020FAE710B5BC21064803F000FDCD
:101510000549012003F002FD10BD0000A8050800E8
:10152000388300000406080075140020F3B581B06C
:1015300001980C460102CA1D0E310223344803F003
:10154000F3FC047001990546022732488E00002CF6
:1015500006D0042C16D0062C10D0072C3FD108E062
:10156000815905224968897C114069708059C77387
:1015700035E0084603F0DEFC687030E080590F214A
:10158000C1732CE0044680594068417C012902D196
:10159000007E01280FD0019803F0D2FC0121002821
:1015A000A0590BD04268D07D00281CD001281AD049
:1015B00004280DD00FE0002068700DE04068C27D67
:1015C000022A01D0042A06D1007C02280BD102E0B5
:1015D000107C022807D06F70A1590320C8732846D9
:1015E00003F0B4FCFEBD6970F6E701460A780120FD
:1015F000042A01D9002070474A78002A01D0012A24
:10160000F8D10A79082AF5D849790829F2D870471B
:10161000021C000028050800FFB589B00D46002017
:101620006946059008720B98000A009003F088FC48
:1016300007460B9803F0ACFB00287DD00B98297867
:10164000000A8400784E012963D0042904D00629B9
:1016500048D0072968D125E03059C17B032901D042
:10166000042961D1697800291AD040681022A91C88
:1016700003F024FC002F06D03159C87B032807D083
:10168000042808D050E03059C07B032803D04BE039
:101690000B20C87348E00521009803F05DFC43E08F
:1016A0000120B6E03059C07B0E283DD1009803F0F0
:1016B00041FC002103E02A18401C9170C0B21028A0
:1016C000F9D3688A69460883294606A80822143196
:1016D000023003F0F3FB06ABAA1C3946009803F076
:1016E00041FC21E03059C07B0F281DD1AA1C0A21E2
:1016F000009803F03DFC002F04D03946009803F019
:101700003DFC11E000231A463946009803F03CFCEA
:101710000AE0012F08D10B9803F03AFB01281CD0F6
:10172000002801D0022005906846007A002811D0D8
:1017300002AA0521009800E00CE003F019FC6846BD
:10174000027A6020024368460272012339460098FB
:1017500003F01AFC05980DB0F0BD3059C07B02288B
:10176000E2D16878002851D002210B9803F034FBB5
:10177000305907224068A91C173003F09FFBE87816
:10178000002804D130594068407C01283AD00098A4
:1017900003F000FC002837D0297A009803F000FC01
:1017A000002833D0009803F001FC0121009803F0D9
:1017B00003FC00282CD030594068417E00292BD0F2
:1017C000042929D0C17E027D1140C176305940687C
:1017D000017F427D114001776846007A0028A7D139
:1017E0003059022142680098173203F0C1FB30598A
:1017F00041684031897B002913D004210098FFF70C
:1018000095FE91E7022004E0062002E0082000E0B7
:101810000320694608728BE70021C1763059406881
:10182000D9E70B21C1737FE7280508000F4A5188CB
:1018300007235B0299434002014351807047052012
:1018400000070188302211430180018803221143DF
:1018500001807047052000070188302291430180F4
:1018600001888908890001807047000080000050CD
:1018700030B5924A9249D005048880231C430480E5
:10188000904C65892D0701D4521EFAD28E4C01224C
:1018900022608E4C0A8822808D4A498811800188F6
:1018A0009943018030BD00207047704770477047F2
:1018B0000020704701218907086B07221043086345
:1018C0007047704730B584498248086083494C208E
:1018D0000880824C824B203C238283498148488087
:1018E0008348824901808149193141802221418107
:1018F0008121890001827F4941827F4901837D499D
:10190000113141837A4A7D492032918041227C49BC
:1019100012018A807B4ACA807A4D1035CD810A82B5
:101920004A82921C8A826A1FCA82FF2246320A8336
:10193000754A4A83754A592111807449744D203182
:101940000D8043254D80734D5582D5228A80FF221C
:10195000D3320A81704A4A81704A8A81714A704939
:1019600011805E49704A60394A80CA8810252A432E
:10197000CA80674A0A3A0A81584D6C4A403D6A80DB
:10198000638208224A815249604A0988403A11829A
:101990004E49674A0988118066490978002901D0B3
:1019A0003021018330BD4008704700B58BB0624ADA
:1019B0004262624A8262624A4261624AC262624A28
:1019C0000260624A0262624A4260624AC261424AFC
:1019D00040480021106040484038026B03129A438F
:1019E0000263426B1F231B049A4303231B04D21878
:1019F000426359480268C3129A43026002680313A3
:101A00009A43026068464154491CC9B22829FAD356
:101A100001462822514803F051FAFFF753FF03F023
:101A20007BF94F490880002003F07CF903F080F92E
:101A30000BB000BD10B5284A0F21264809021060DE
:101A400025484038426B1F231B049A4303231B0481
:101A5000D218426300060268D208D2000260052054
:101A60000007028992089200521C02810289082311
:101A70001A430281028A0A430282FFF723FF394890
:101A8000006B0078002804D037480088134960397B
:101A9000C880012003F00AF910BD2648007870477D
:101AA00024490120087012493020088370472149D9
:101AB000002008700E49104808837047A086010076
:101AC000087F0400200000500080004056020800FB
:101AD0004A0308004C05540780000040602C005069
:101AE0007F7F0000AC29000000220050090900009F
:101AF000002400502204000030D00000EE1100004D
:101B0000002500502E020000442000004028005014
:101B10000D95000002420000E4DC0000109200007D
:101B200053780000002A00508B1000009DD5000063
:101B30000026005010120800A7180020AB18002043
:101B4000B1180020B5180020AD180020C3180020DF
:101B5000AF180020A7190020000200402000080054
:101B600078040800200200205204080008430121E4
:101B7000890303460B4343490B80434B18430880BA
:101B8000092002434A8070473E490A880F239B017F
:101B900000079A43800D02430A80704739490020AC
:101BA0000880704737483949028802231A43028067
:101BB000491E02D302889207FAD40021018140898C
:101BC00070470AE000BF00BF00BF00BF00BF00BFFA
:101BD00000BF00BF00BF00BF00BF401EF2D2704771
:101BE00070B50222510204464E003046FFF7BEFF98
:101BF0001420FFF7E6FF002C01D0092000E00720A9
:101C0000FFF7C2FFFFF7CEFF05460120FFF7D9FF20
:101C1000022200213046FFF7A9FF002C01D0092045
:101C200000E00720FFF7B0FFFFF7BCFF4019154A9F
:101C30000021118070BDF0B5124C15482080142091
:101C4000FFF7BFFF01256D02A580E5802088E90030
:101C50000843208020888E10B0432080FFF7A2FF29
:101C60000746208830432080FFF79CFF024678001B
:101C700071424018281A52005118691AA080E18058
:101C8000F0BD00000015005001400000A0860100DA
:101C90000148000030B5F8480023016DDB430029FE
:101CA00001D01A4600E00122F44902650C684D6833
:101CB0000C602A434A60426F002A01D01A4600E0B5
:101CC000012242670C6852024D680C602A434A6048
:101CD000026E002A01D01A4600E0012202660C685A
:101CE00012014D680C602A434A60C26D002A00D17F
:101CF0000123C3650A68D8004B680A60184348602E
:101D000030BDFEB50020DC4E0346282200214243B0
:101D100092198C00491C13510A29FADB401C042833
:101D2000F3DBFFF7B7FFFEF7B1FED44800220260F5
:101D3000426015460024D2486900475A0120A0405D
:101D400080B207421AD0282068438019A100405869
:101D5000411C17D000280ED0C117224603F032F9DB
:101D60002A0103F02FF9C54B1A685B681043C34A78
:101D7000194310605160641C0A2CDFDB6D1C042DBC
:101D8000D8DBFEBD0095019400BEE5E7F8B5164628
:101D900004460D460A461F460120002103F012F9B1
:101DA000220103F00FF9B54B1A685B681040194027
:101DB000084300D100BE032C00D10424B1496001C6
:101DC0004018690008183E43C680F8BD70B5044647
:101DD0000D460A460120002103F0F4F8220103F029
:101DE000F1F8A64A1368526818401140084300D120
:101DF00000BE032C00D10424A24960014018012137
:101E0000A940818070BD70B504460D460A46012088
:101E1000002103F0D7F8220103F0D4F8974A1368A1
:101E2000526818401140084300D100BE032C00D175
:101E300004249449600140180121A940418070BDEB
:101E4000FFB581B00C4605460A461F460120002119
:101E50000A9E03F0B7F82A0103F0B4F8874B1A681A
:101E60005B6810401940084300D100BE002E214697
:101E7000284602D0FFF7C7FF01E0FFF7A7FF3B4668
:101E800021462846039AFFF781FF05B0F0BD70B5E3
:101E9000154604460E460A460120002103F092F83A
:101EA000220103F08FF8754B1A685B6810401940E7
:101EB000084300D100BE002C07D0601E71494000CD
:101EC00070314018012C02D002E00020F6E70836FD
:101ED00001880122B2409143B5400D43058070BD99
:101EE00070B504460D460A460120002103F06AF849
:101EF000220103F067F8614A1368526818401140E4
:101F0000084300D100BE032C00D104245D496001C8
:101F1000401800880121A940084000D0012070BD70
:101F2000FFB514460D4606460A4681B00120002141
:101F300003F048F8320103F045F8504B1A685B682B
:101F400010401940084300D100BE4FA00068009027
:101F50004E48838920461338FF22013282400B9974
:101F60009343002901D0012700E00027D10701D0C9
:101F7000002138E0910701D5012134E0510701D556
:101F8000022130E0110701D503212CE0D10601D553
:101F9000042128E0910601D5052124E0510601D550
:101FA000062120E0110601D507211CE0D10501D54D
:101FB000082118E0910501D5092114E0510501D54A
:101FC0000A2110E0110501D50B210CE0D10401D547
:101FD0000C2108E0910401D50D2104E0510401D544
:101FE0000E2100E00F218F4028493B438B818B89D4
:101FF0000B9F9B099B013B438B810B8A9343D70724
:1020000001D0002245E0970701D5012241E05707A2
:1020100001D502223DE0170701D5032239E0D7069A
:1020200001D5042235E0970601D5052231E0570697
:1020300001D506222DE0170601D5072229E0D70594
:1020400001D5082225E0970501D5092221E0570591
:1020500001D50A221DE0170501D50B2219E0D7048E
:1020600001D50C2215E0970401D50D2211E0520490
:102070000ED50E220DE00000209000201854002004
:10208000885300200030005001090F19001400503F
:102090000F220A9F97403B430B820B8A024601277F
:1020A000384690408343C20701D0002238E08207BF
:1020B00001D5012234E0420701D5022230E00207B7
:1020C00001D503222CE0C20601D5042228E08206B5
:1020D00001D5052224E0420601D5062220E00206B1
:1020E00001D507221CE0C20501D5082218E08205AF
:1020F00001D5092214E0420501D50A2210E00205AB
:1021000001D50B220CE0C20401D50C2208E08204A8
:1021100001D50D2204E0400401D50E2200E00F227B
:102120000498904003430B82954861000818418B46
:102130006A468909925D8901521911434183A007BA
:10214000C20EFF21914080209040002C0BDA220724
:10215000120F083A93088B4A9B009B18DA698A434E
:102160000243DA6107E0A308874A9B009B181A68BC
:102170008A4302431A60E006C00E87408348076026
:1021800083E67F4940310A8A1338012181400A40A1
:10219000C80701D0002038E0880701D5012034E0CD
:1021A000480701D5022030E0080701D503202CE0C4
:1021B000C80601D5042028E0880601D5052024E0C2
:1021C000480601D5062020E0080601D507201CE0BE
:1021D000C80501D5082018E0880501D5092014E0BC
:1021E000480501D50A2010E0080501D50B200CE0B8
:1021F000C80401D50C2008E0880401D50D2004E0B6
:10220000480401D50E2000E00F20C240D0B2704734
:1022100010B55B4C4034238A13380122824093432B
:10222000D00701D0002038E0900701D5012034E02C
:10223000500701D5022030E0100701D503202CE023
:10224000D00601D5042028E0900601D5052024E021
:10225000500601D5062020E0100601D507201CE01D
:10226000D00501D5082018E0900501D5092014E01B
:10227000500501D50A2010E0100501D50B200CE017
:10228000D00401D50C2008E0900401D50D2004E015
:10229000500401D50E2000E00F2081400B43238223
:1022A00010BD10B5364C4034E38901221338114675
:1022B00081408B43C80701D0002038E0880701D552
:1022C000012034E0480701D5022030E0080701D59D
:1022D00003202CE0C80601D5042028E0880601D59B
:1022E000052024E0480601D5062020E0080601D597
:1022F00007201CE0C80501D5082018E0880501D595
:10230000092014E0480501D50A2010E0080501D590
:102310000B200CE0C80401D50C2008E0880401D58E
:102320000D2004E0480401D50E2000E00F2082407B
:102330001343E38110BD164A800080188038416342
:10234000704710B50446FFF7ACFF1149A0004018D4
:102350008038406B002801D0804710BDE106C90ECF
:10236000012088400B49086010BD1320E9E71420C4
:10237000E7E71520E5E71620E3E71720E1E700008F
:10238000C013005000ED00E000E400E000E100E0D8
:10239000C090002080E200E010B54F4841780078FE
:1023A000FFF714FD10BD10B54B4841780078FFF7DA
:1023B0002AFD10BDF8B50E46154647490278079F1D
:1023C0000A7040781C464870FFF7EDFF05200007B3
:1023D00081880122D2021143818040480188490846
:1023E000490001800188FF2281329143F2011143AB
:1023F0000180018840229143AA0111430180018894
:1024000004229143A20011430180018802229143DA
:10241000069A5200114301800188012292039143E0
:10242000BA0311430180018818229143089AD2000F
:10243000114301800188012211430180F8BD274921
:102440000A88520852000A800A88FF2381339A437F
:10245000C00102430A8008880122104308807047A7
:1024600010B51E4801884908490001800520000771
:1024700081880122D20291438180174841780078F7
:10248000FFF7C1FC10BD15480188490849000180CB
:10249000704710B5114900230A88D205920F012A0E
:1024A00001D9040C8C80488008888004FCD5012068
:1024B000C880012A01D9888803044888C01810BD43
:1024C00010B50446FFF768FF2046FFF7E2FF044619
:1024D000FFF769FF204610BD205400200012005075
:1024E000F74AD1609060704710B50120FFF7A7FF51
:1024F00005200002FFF7E4FFC0B210BD70B5002454
:10250000F04DFFF7F1FFC00704D0641CAC42F8D3D4
:102510000020C04370BD70B5FFF7F0FF002817D151
:10252000FFF78DFFFFF738FF9F20FFF7B2FF002076
:10253000FFF7AFFF05040020FFF7ABFF04022C43B9
:102540000020FFF7A6FF20430546FFF72CFF284693
:1025500070BD70B5FFF7DFFFD94CDB4A00211423B3
:102560004B43D5589B185B681D4003409D420ED1DC
:10257000142308B24B4320809B189D68A560DB683C
:10258000E360142358438018606048B270BD491C52
:1025900089B20429E3D300206060401E70BD70B58D
:1025A000FFF7ACFF002815D1FFF749FFC54E002506
:1025B0000620FFF785FF0024FFF796FFC10703D130
:1025C000800701D5002070BD641CB442F4D36D1C9B
:1025D000322DEDD30020C04370BD70B5FFF78EFFE4
:1025E000002815D1FFF72BFFB64E00255020FFF72E
:1025F00067FF0024FFF778FFC10703D1800701D5EB
:10260000002070BD641CB442F4D36D1C322DEDD398
:102610000020C04370BD70B5FFF770FF002811D1D6
:10262000FFF70DFFA74E00250420FFF749FF002408
:10263000FFF75AFF800707D0641CB442F8D36D1C23
:10264000322DF1D30020C04370BD10B50446FFF712
:1026500055FF002808D10120FFF7F1FEE01DF930F9
:10266000FFF72EFFFFF74AFF10BD70B506469448EE
:102670000D4680685119814201D9441B00E014467F
:10268000FFF73CFF00281AD10220FFF7D8FEFFF722
:1026900083FE0321284609060843FFF7FAFE0020BF
:1026A000FFF7CDFE002505E00020FFF7F2FE3070B9
:1026B000761C6D1CA542F7D3FFF775FE204670BD52
:1026C00070B505467E480E46C0681446824200D961
:1026D00084B2FFF713FF00281ED1FFF760FF002828
:1026E0001AD10220FFF7ABFEFFF756FE012130465C
:1026F00049060843FFF7CDFE0020FFF7A0FE05E0E6
:1027000028786D1CFFF7C5FE641EA4B2002CF7D11B
:10271000FFF749FEFFF7F2FE70BD70B50D460446A7
:10272000FFF73DFF002802D00020C04370BD02200B
:10273000FFF785FE28062043FFF7C2FEFFF7DEFE07
:1027400070BD10B5FFF72BFF002802D00020C0435A
:1027500010BD0020FFF773FEC720FFF7B1FEFFF7A3
:10276000CDFE40B210BD10B50024FFF7C7FE002813
:1027700011D10120FFF763FEFFF70EFE09200003D1
:10278000FFF787FE0020FFF784FE0020FFF781FEA1
:1027900084B2FFF708FE20B210BD70B500252C46AC
:1027A000FFF7ACFE002818D1FFF749FEFFF7F4FD54
:1027B0004B20FFF76EFE0220FFF741FE0020FFF7DF
:1027C00068FE0020FFF765FE002604463046FFF74E
:1027D00060FE30430546FFF7E6FD2846214670BD02
:1027E000F7B582B0364F0E460091F96814460D4693
:1027F000304602F0AFFA401C6843451E0020FFF748
:102800001EFEB868801BA04200D204462646002760
:1028100019E000988019A84202D900982E1A761C57
:102820000298B2B2C0190099FFF74AFF002803D0FE
:102830000020C04305B0F0BD681C00902048BF19BF
:10284000C0682D18E61BA742E3D33846F2E710B55F
:10285000FFF754FE002805D1FFF7F1FDB920FFF77F
:102860002FFE002010BD10B50020FFF7E8FDAB20C3
:10287000FFF726FE002010BD70B5114C05466068BC
:10288000002806D0FFF78BFE002805D00020C043AB
:1028900070BD0520C04370BDFFF726FE6168097C4E
:1028A000884329400843FFF7D0FE70BD10B50448A7
:1028B0004068407CFFF7E0FF002807D040B210BD21
:1028C00024540020400D030090530020FFF739FFEF
:1028D000F5E770B5054639480E46C0681446824291
:1028E00000D984B2FFF70AFE00281DD1FFF757FE7A
:1028F000002819D10220FFF7A2FDFFF74DFD0121AD
:10290000304649060843FFF7C4FD0020FFF797FD56
:1029100004E02846FFF7BDFD641EA4B2002CF8D1E8
:10292000FFF741FDFFF7EAFD70BDF7B582B0234F19
:102930000E460091F96814460D46304602F00AFA38
:10294000401C6843451E0020FFF779FDB868801BD6
:10295000A04200D204462646002717E000988019BE
:10296000A84202D900982E1A761CB2B20099029899
:10297000FFF7AFFF002802D00020C0435AE7681CD1
:1029800000900E48BF19C0682D18E61BA742E5D37A
:1029900038464FE71FB56A46517310730020009008
:1029A0000190034602460146029003A8FFF702FD8C
:1029B000FFF759FFFFF7CDFD04B080E72454002056
:1029C00070B516460C46054601280FD1062263490C
:1029D000634802F0FDFA002808D00622604930461C
:1029E00002F06CFA06202070002070BD32462146AD
:1029F000284602F0F3FA70BD70B55A485A49C4052A
:102A0000228880252A432280584A53891B0701D4F3
:102A1000401EFAD2564A012010600622504802F0A9
:102A20004DFA2088A843208070BD70B50024052091
:102A30000007018A88B0022291430182818A090736
:102A4000FCD5418A20221143418200F04FF8182121
:102A500001A802F05DFA1F211822090301A8FFF75F
:102A600004FE68460079702803D0684640795228F1
:102A700014D104A806223F49054602F0A9FA00280D
:102A80000CD006223549284602F0A2FA002805D0CB
:102A900006222946324802F011FA0124FFF7D7FE38
:102AA000FFF7DEFC01200322009000231202032125
:102AB0000220FFF7C5F90025012676022B46324693
:102AC000294602200095FFF7BBF900233246092171
:102AD00002200095FFF7B4F90023324604210220BA
:102AE0000095FFF7ADF9204608B070BD7FB5012015
:102AF00003252D02009008232A4603210220FFF718
:102B00009FF9002407232A46214602200094FFF75C
:102B100097F906232A46092102200094FFF790F92D
:102B200005230022042102200094FFF789F90221E5
:102B300068460173032141730023009401941A46EF
:102B4000194603A80294FFF735FCFF210131480222
:102B5000FFF7C6FCFFF787FE7FBD0000383E03008D
:102B600011120800A0860100D47F0400200000504C
:102B700000800040E053002070B50125AD07AC6B2C
:102B80002046FEF73DF9914902F0E4F827221201B0
:102B9000511A00D101218E4A50601160286B082122
:102BA0008843084328638B4804608B4800680028EA
:102BB00002D0A04200D200BE70BD10B505200007B3
:102BC0004189890708D04189890889004181834961
:102BD0004A88520852004A800189802211430181AB
:102BE000018A042291430182818A8907FCD502F07F
:102BF000FBF9012080070169490700D500BE016982
:102C00004907FCD510BDF8B5754EF08800282DD1C8
:102C10000120F08073490820088005273F07788944
:102C2000800720D0B88A400701D5FDF76EFF6B4DB5
:102C300028888021084328806B4CFF206080042076
:102C40002080FEF7FCFD7D21C900E088A2880004F9
:102C500080188842F9D905202080B088788029889A
:102C6000802081432980614910200860F8BD70B53B
:102C7000FEF7F0FDFFF7A1FF0026594C0520E68086
:102C80000007418A802291434182564801894908C0
:102C90004900018101F0A0F8012080078169042228
:102CA0001143816102F0A6F95049102080310125BD
:102CB000086002F0A5F902F0A9F91420FEF703F864
:102CC000464826704089800510D5607800280DD1CF
:102CD000474865700088C00708D10120FEF780FFD3
:102CE0008B218900884201D90220607070BD10B527
:102CF00002F092F900F062F839490120087010BD25
:102D000010B501208007008A000604D500F056F8AF
:102D10001420FDF7D8FF10BD10B502F083F910BDE7
:102D200010B50124A407208A000715D502F080F908
:102D30002068400040086100084320602068C00F00
:102D4000FCD12348803001680906090E01D0012119
:102D5000016023490420087010BD70B52548008823
:102D600086062548B60E44682448006B0078002883
:102D700002D1304602F062F921480089184DC005A1
:102D800007D520060FD5E0070DD0304602F05CF9DC
:102D900003E0200607D5E00705D003201949287075
:102DA0000888401C0880200407D5E00505D50220CE
:102DB000154928700888401C088070BD10B5084966
:102DC0000120887002F046F910BD00007102000079
:102DD000400000402412080020120800200000508B
:102DE00018120800003300500016005000E200E006
:102DF000001500500020005000020040200200207A
:102E0000002C00503A54002046540020F0B5694F81
:102E100085B0786900260290FDF7E1FD664D002837
:102E200002D12879022801D100200290FEF710F883
:102E300000280DD102F014F9002809D0E878012605
:102E40000028FAD005242407A08AC00701D0042650
:102E5000ACE001F031FF0028FAD12879002801D137
:102E60003869029055488069002801D0786902903D
:102E7000A97802A8029F02F0F9F8002840D04E4835
:102E8000817802A801F02AFF002839D002F0F4F876
:102E9000002835D000254A480297FDF7ACFF0746C9
:102EA000484A01208007016A914202D2016AC8297A
:102EB000F9D801208007006AC82800D801253E48BB
:102EC000817802A802F0D2F8002817D03A48817819
:102ED00002A801F003FF002810D00298002803D0B8
:102EE000002D01D0401E02903748FDF784FF374A7D
:102EF000014612781231022A03D003E000F06CFF81
:102F000054E01131324A5289920500D500BEC21BED
:102F10000125AD07EB6B9B0A9B021343EB63EA6B46
:102F20002C4B89021A400A43EA63E96BC902C90AB9
:102F300040050143E96302980426002801D0001DE2
:102F4000029001F0E2FD2449096801F0D4FC01F08F
:102F5000FCFD22490090086017490979002900D03A
:102F6000012102F08FF81E48C06A80470027FDF754
:102F70009CFF002808D0208830210843208020882A
:102F80000321084320800127286B0004C00FFBD0D9
:102F900014480168C905FCD5002F01D0FEF75AFC82
:102FA00002F076F82089802188432081304605B0E0
:102FB000F0BD0000A0020020C6060800A805080019
:102FC000540B0000260200001D0D000054020800F2
:102FD00020000050FF03E0FF0C1208002012080040
:102FE0001C0708000002004008B572B602F056F84F
:102FF000052109074A8A68460280008882089200F3
:103000006846028002880120C003024368460280AD
:103010000088488208BD10B5FDF780FCFC480021FF
:1030200001700222427081702522C2703222828099
:10303000C1800181418181814182C1810182F54A42
:1030400013681403234313608182FDF77FFD10BDD5
:1030500038B5EF4C207800280BD120816081A08109
:103060006082A07869460870684602F01DF8022068
:10307000207038BD1CB5E64900220A814A818A8148
:103080004A820A8200788870FFF7E2FF04216846CE
:1030900001700E214170032181700121C170DE4950
:1030A00081800022062101F031FE1CBD38B5D84CCC
:1030B0002078002816D1E080A17868460170E17878
:1030C00041706178817001F0F5FFD44D05E06846EC
:1030D00001F0F0FF002800D0FEE7686B0028F6D072
:1030E0000120207038BD1CB50446042168460170DB
:1030F0000F214170032181700121C170C849818075
:103100000022062101F002FEC14821788170617819
:10311000C170A17841702179E27809021143818060
:10312000FFF7C4FF1CBD38B5B94C207800281BD16F
:10313000A17868460170252141706178817001F0A5
:10314000B9FFB848016AC21311430162016A02144F
:1031500091430162016A821491430162016A490A42
:10316000490201620520207038BD1CB504460421C7
:10317000684601700E214170032181700121C170E8
:10318000A549002230318180062101F0BFFDA04811
:103190002178817061784170FFF7C5FF1CBDFEB5D5
:1031A000A14D02780121A04C203589024F2A31D04F
:1031B0009E4B8E10542A39D0522A2AD11960477852
:1031C0009B480078002855D09A48218831432180B7
:1031D0002188C05D090A0902014321800120964926
:1031E00080038880012028800820288006208849C4
:1031F00008700421684601700E214170032181701E
:103200000121C1708449002210398180062101F01A
:103210007DFDFEBD002020802880874B03229A8000
:10322000824A803A1160854A1160E0E71960477868
:103230007F480078002811D07E48218831432180C2
:103240002188C05D090A09020143218001207A49D1
:1032500080038880042028800220C6E7384601F0D9
:10326000EDFE2088304320802088000A0002384389
:103270002080EBE7384601F0E1FE208830432080D3
:103280002088000A000238432080A7E710B5604C70
:103290002078012805D02078022802D0207805283F
:1032A00007D15E48406B00F0A7FC5C48343001F069
:1032B00007FF0020207010BD1CB504216846017076
:1032C0000E214170032181700121C17052490022F9
:1032D00040318180062101F019FDFFF7D7FF5149E8
:1032E000002008621CBD1FB50421684601700E2134
:1032F00041700B2181700121C170474910318180DB
:1033000043490A89C2804A8902818A894281098A9D
:10331000818100220E2101F0F9FCFFF7B7FF1FBDEC
:103320007CB504460421684601700F2141700321D9
:10333000817039490125C5705031818000220621F4
:1033400001F0E4FC227802213D48012A04D0022A3F
:1033500018D0FDF7E3FA7CBD6278002A02D1A2788A
:10336000002A0DD005716078364919224843A178AA
:1033700092015143411834484161FDF7DCFA7CBDAC
:103380000171FAE70171FDF7E3FA7CBD0521090738
:1033900048807047F7B52D49CC05208880273843F1
:1033A00020802B484289120701D4491EFAD2C18BD2
:1033B00002221143C183002550E02648002101600C
:1033C000009AAE00B2181204920C0261416104210D
:1033D000016001983018401C01F02AFA019900029E
:1033E000895D08431B498A681205120F082AFAD022
:1033F00088618868C206FCD581072DD5C10401D437
:10340000800429D52088B84320800020C043FEBD19
:1034100034540020000200402040000090030800C7
:103420001E200000C00000400020005080E100E0AD
:10343000DA51002020000800002C005080E200E05B
:10344000C606080000770100A0020020A086010047
:1034500020000050008000406D1CADB202988542F3
:10346000ABD32088B84320800020D0E7F0B50546D4
:10347000401C417802780802297805241043002670
:103480000127240785B001291ED0FB4BFA4AC03B17
:1034900002290AD003290CD0042911D0052915D0FE
:1034A000062919D0072917D03AE017630320000234
:1034B00010E06188F14A121A8A4231D3081803E0F9
:1034C000618881422CD3081A608029E000201063B3
:1034D00001204002186123E0687800F037FF411CAA
:1034E00005D0811C05D02978072904D018E00126D1
:1034F00016E0022614E080B2009001226946E048FE
:10350000FFF748FF002800D0032610200090DC4879
:10351000012269461438FFF73DFF002800D003263A
:103520000421684601720E21417205218172C77221
:103530002878002814D0062814D0072812D000209C
:103540006946C8818120C0016946888102ACFDF7C7
:10355000CAFA00220821204601F0D8FB05B0F0BDD0
:103560006088EDE76846C681ECE77CB504460078E4
:10357000651C030001F012FC09060A11151C202726
:1035800033483800607801F09EF82DE0687829789B
:103590000002084301F081F826E0607801F06AF843
:1035A00022E0687829780002084301F056F8EDE738
:1035B000607801F07FF817E0687829780002084306
:1035C00001F09CF810E0687829780002084301F0C7
:1035D00037F8A078002802D16078002802D001F0E6
:1035E0009EF801E001F082F80421684601700E2186
:1035F0004170032181700121C170A24981800022A4
:10360000062101F083FB7CBD6078EBE71CB504224A
:1036100069460A700E224A7005228A700122CA7019
:10362000984A103A8A800078C880684600220821AB
:1036300001F06CFB1CBD10B592B00421684601700E
:103640000E214170452181700121C1708D490D24E9
:1036500010318180847120228BA102A801F036FDF7
:103660006846C47120228CA10AA801F02FFD68468B
:103670000022482101F04AFB12B010BDF8B50E46F9
:103680000121894B89044118DC05208880252843C5
:103690002080864847893F0701D45B1EFAD2844BBD
:1036A00001201860304601F009FC2088A8432080E2
:1036B000F8BD70B586B0042269460A700E224A70C1
:1036C0000A228A700122CA706E4A6D4D503A8A8071
:1036D00002788A710022CA7102920A7301786B46DD
:1036E00000290ED0664C483402290ED0644E143E98
:1036F00004290ED0012912D0032919D0052922D07E
:1037000028E00222D91D284606E00622D91D2046BF
:1037100002E00422D91D3046FFF7B0FF1AE081789D
:103720004278080210430490012204A928460FE0C1
:1037300004920592411C062204A801F0BFFB02225C
:1037400004A9204604E010200490012204A9304678
:10375000FFF720FE684600220D2101F0D7FA06B0DF
:1037600070BD10B5534CA06901F0B6FC0020A061FB
:1037700010BDF8B5417802780902114300918778AD
:103780000321BE0035460835284601F0ABFC04464F
:10379000042020700E206070711DA1700120E07067
:1037A000384821464038A0800020A071E771F2B26D
:1037B00008310098FFF762FF3E4920468C613E4A7F
:1037C000294601F0A3FAF8BD1CB5417802780B0236
:1037D00013438478C11C22461846FFF7DBFD042101
:1037E000684601700E214170052181700121C17070
:1037F000244930398180002181710A46C471082131
:1038000001F084FA1CBDFEB5044606780421684622
:1038100001700E214170092181700121C170194987
:103820002039818086710021C171601C029100F0F5
:10383000FFFF050220792D0A00060543002E06D061
:10384000012E0ED0022E39D0032E42D13CE0286842
:1038500069460872020A4A72020C8A72000EC87225
:1038600037E0601D00F0E4FF0002217A000A09063B
:10387000084328602DE00000C0300050FFFF00002A
:103880008C7F0000E0400000765F332E302E313018
:103890002E35333400000000765F332E35302E3164
:1038A0002E31303100000000A086010020000050C1
:1038B0000080004034540020633700202888694687
:1038C0000872000A487204E0A07961790002084396
:1038D000288000220C21684601F018FA97E50000C4
:1038E0001649896A084710B5052001F00BFB1448FA
:1038F0000068002805D0114901224031097B00F001
:103900008BF810BD10B520210D4801F001FB0C48CB
:1039100001F0EEFB0A480C3001F0EAFB01F0EEFB8F
:103920000849062001F0FAFA0749052001F0F6FAE5
:103930000649042001F0F2FA10BD0000E001002069
:103940006C03080041600200E7380020815F02003C
:10395000F7B586B09D48069D0090047B4035E87C15
:1039600016468019E8744A700C70688988809748F8
:103970000F462038039036E00398816A2E2060437A
:10398000081893490A78022A02D0097804291ED11E
:10399000904A1188491C11804288D10703D08E4B70
:1039A0001988491C1980110703D58C4A1188491CB4
:1039B00011808B4982790B88D21852080A80894974
:1039C00049880A0A88490B88D21852080A80E97D7A
:1039D000C90705D08078400602D4069801F094FB10
:1039E000641C6407640F3046761EF6B20028C3D10B
:1039F00000980473287E00280CD0E87C002809D0A9
:103A000003993878896A2E22504308188078C007B5
:103A100000D1287609B0F0BDF8B50F4605467349C8
:103A200040300089C9691646884201D1002102E070
:103A30000002401C81B202220623900201F074FAB7
:103A4000044601463A462846FFF782FF002E02D080
:103A50000020A07003E02146284601F05BFB2046D1
:103A600001F074FAF8BD30B561490A88FF2381334B
:103A70009A4380320A800C88012214430C800C88FF
:103A80001825AC4310340C8004884C800C88A404A6
:103A9000FCD5CA8044884C800C88A404FCD5CA801C
:103AA00084884C800C88A404FCD5CA80C4884C80CF
:103AB0000C88A404FCD5CA8004894C800C88A4041A
:103AC000FCD5CA8044894C800C88A404FCD5CA80EB
:103AD00084894C800C88A404FCD5CA80C4894C809D
:103AE0000C88A404FCD5CA80048A4C800C88A404E9
:103AF000FCD5CA80448A4C800C88A404FCD5CA80BA
:103B0000848A4C800C88A404FCD5CA80C48A4C806A
:103B10000C88A404FCD5CA80048B4C800C88A404B7
:103B2000FCD5CA80448B4C800C88A404FCD5CA8088
:103B3000848B4C800C88A404FCD5CA80C48B4C8038
:103B40000C88A404FCD5CA80048C4C800C88A40486
:103B5000FCD5CA80448C4C800C88A404FCD5CA8057
:103B60000C889C430C80848CE4B24C800C88A404A8
:103B7000FCD5CA800C889C4380340C80194C658825
:103B80004D800D88AD04FCD5CA800D88801E9D43F4
:103B90000D800078488008888004FCD5CA80088899
:103BA0009843803008802088488008888004FCD5AD
:103BB000CA801048808A488008888004FCD5CA8062
:103BC000088840084000088030BD00003803080025
:103BD000345400203C5400203E5400204054002027
:103BE000425400200029005044540020E0010020ED
:103BF000001200500023005007490968084710B51B
:103C0000002803D00121890601F08AFA034841689F
:103C10000120884710BD0000A00200201C070800FA
:103C200030B5A549A54B4A7E00200C7E9D5C03461D
:103C3000AC4205D1521CD2B24A76032A01D30120EC
:103C40004B7630BDF8B59C4C0025264620360746FD
:103C5000002812D0B07802280AD1F078012801D0CB
:103C6000052805D12069002802D001F045F9256119
:103C7000012F48D1002000F001F9B07800280AD0C7
:103C8000012816D0022841D003280BD1FFF7C8FF26
:103C9000002838D15EE0F078012804D0052804D04F
:103CA00000F0ECF8F8BD032000E0082000F0F3F885
:103CB000F8BDF07801280FD00528F9D17E48038C93
:103CC000C28B818B408B01F02FF9014610392161A5
:103CD000C889002806D111E000F0FEF82169C889E2
:103CE000002803D0103100F0BBF8F8BD0889744AF1
:103CF000904206D0724A3032904202D008461030CC
:103D000025E00D8119E000F028F8F8BDF0780128D1
:103D100003D00528F9D1206918E000F07FF9206967
:103D20000189012912D01F2910D021290ED0202964
:103D300002D1C189032909D005812069C581206983
:103D40000028E0D001F0D8F82561DCE7103001F060
:103D5000FDF8D8E700F078F8F8BD574810B5002115
:103D6000203081702038C068012103685248554ACC
:103D700023309847042001F0D9F910BD10B5032075
:103D800001F0DAF9022001F0D1F910BD10B50320DD
:103D900001F0B8F8484C606901F0AEF820680028DE
:103DA00005D0204601F09CF801F010F810BD00216C
:103DB0003F2001F011F801F0C5F90028F6D001F01C
:103DC000C7F90028F2D1082001F0C8F904223F21E8
:103DD0003D4801F0C9F910BD3C48C06A004710B524
:103DE0003B49032001F09AF83348C0688068804757
:103DF000FFF7B3FF10BD70B5064614460D4602200E
:103E000001F0ACF9681E2C490670C968314A4B684C
:103E1000611C984770BD2848C0688068004710B58D
:103E20002548C068C0688047002801D0012010BD27
:103E300001F08EF9002805D0234802223F21401CC2
:103E400001F092F9002010BD1B4803212030817041
:103E50002038C0680121036817481A4A18301847EB
:103E600030B40C461449022220318A702039C968C6
:103E7000144A0B680146204630BC184710B50E495D
:103E800000224A760876FFF7CBFEFFF7DDFF04201D
:103E900001F04CF910BD084910B5012220318A709B
:103EA0002039C968074A0B68014603481A30984709
:103EB000042001F053F910BD80040800E6530020EF
:103EC00030400000453C002002FC0000E0010020E2
:103ED0008D3D00207D3D0020A048C0690047FEB513
:103EE00000269F480196C17E807E0C0204439C4FB1
:103EF0009C483D7F211A009584423FD011DC9A48AE
:103F0000211A84423FD006DC9848201837D09849BF
:103F100040180FD135E0012937D09648081809D14B
:103F20000EE0954810293AD0302909D0402930D0E8
:103F3000D0293AD03F200190681C904EC0B200902A
:103F40008848103884425DD086481030844259D069
:103F50008448844256D083483030844252D08148CD
:103F6000403084424ED07F497E4B7F488122503181
:103F7000D201703384421BD1052D3AD142E0012693
:103F8000DEE71F26DCE72026DAE72126FFF77EF9A9
:103F9000D6E700780528D3D1FFF78EF9D0E700786F
:103FA0000228CDD1FFF79FF9CAE7FFF744FBC7E727
:103FB0008C4202D1032D1CD124E0944222D09C4299
:103FC00020D06848803084421CD0664890308442BB
:103FD00018D06448A030844214D06248B030844283
:103FE00010D06048C03084420CD05E48D03084424B
:103FF00008D03F223046009B019900F095FF103811
:10400000386109E03F223046009B019900F08CFFA7
:104010001038386104813869C581FEBD4F48006A97
:10402000004710B54E484F4C016950340A89084684
:104030001030131BA2423CD018DC4B4C131BA24285
:104040002ED009DC012A06D04B481F2A23D0202A73
:1040500001D10321017010BD4649591826D01029FD
:104060001BD04029F7D1FFF780F810BD502B32D07C
:104070000ADC102B23D0202B27D0302B28D0402B2C
:10408000F3D1FFF7A1FB10BD602B1BD0702BFAD131
:10409000FFF76BFA10BD0421DCE7FEF7EBFF10BD64
:1040A000C9890529FBD1FFF71EF810BDFFF777F886
:1040B00010BDC9890329FBD1FFF732F910BDFFF705
:1040C000D5F910BDFFF7A2FA10BDFFF7F2FA10BD47
:1040D000FFF74FFB10BDFFF796FB10BD1F49496A64
:1040E0000847F0B51E4E00227569032429462B8926
:1040F0000B310127432B13D004DC242B09D0422B96
:104100001FD109E0442B0DD01C4D6D425B1918D115
:1041100010E0164A524201E0134A521E042410E0F5
:10412000114AFBE7104A6D8A521C06248D712D0A34
:10413000CD7106E00A4AD37E947E1A0222430424FB
:104140004F710E230B704C708F70CA70120A0A7177
:10415000A41C047070690B30F0BD00002002002028
:1041600080040800204000001E200000FDF3FFFF37
:10417000E6EBFFFF0EE0FFFF3454002001FC0000DF
:10418000FE494843012102E000BF00BF491C8142B3
:10419000FAD97047FA49FF2804D8002805D0FF2033
:1041A000013002E0884200D908460521090748800D
:1041B0000A20E5E7F8B500277C1E3E460A21009755
:1041C00000F0C8FD01228A40D1B2002806D00128A3
:1041D00006D0022807D003280AD107E0E94C07E0FF
:1041E000E84C203404E0E74C403401E0E54C8034F6
:1041F000E64DE5486861AE612869042210432861F4
:10420000EFF31086012080F31088204600F0F6F9C5
:1042100000902869400840002861002E0AD0012043
:1042200080F310880098002802D00146D648471A2B
:104230003846F8BD0020F3E771B583B003984043DA
:1042400000F098FF0C460546D14AD24B00F088FD9D
:10425000D14E0022334600F0D5FB00F09EFC0090CA
:10426000039800F047FC009900F045FBCB4900F0B3
:104270007FFB009028462146C94ACA4B00F070FDDA
:104280000022334600F0BEFB00F087FC019003984B
:1042900000F070FFC44AC54B00F062FD0022C44B21
:1042A00000F0B0FB00F079FC02900199009800F05A
:1042B0001AFB029900F0C6FABE4900F0C3FA00905A
:1042C00000F02AFC04B070BDF8B500256B462E4600
:1042D0001D80B94C61602060FFF7AEFF61680F1A66
:1042E00069460888401C08802068FFF7A5FFC119AF
:1042F000B248814203DB2268521E012622608142BD
:1043000003DC2068401C012520602846304206D18D
:1043100068460021415E7D2000018142E0DB684665
:104320000021415E7D200001814202DB0020C0436C
:10433000F8BD2168FF2902DCFF20013004E090482D
:10434000814201DC2068F8BD2060F8BDF1B582B083
:104350008C4D8C498B4C029E03208A4A00022035EA
:1043600040318034330000F019FD26141A20262C29
:1043700032383ED3D3444A50565C62D3D3D3D36849
:104380006E747A80868C92989EA4AAB0B6BCC2C87D
:10439000CED3D1888143FF310131D180B8E011897A
:1043A0008143FF3101311181B2E051898143FF31F5
:1043B00001315181ACE091898143FF31013191811B
:1043C000A6E0D1898143FF310131D181A0E0118A7A
:1043D0008143FF31013111829AE0518A8143FF31DB
:1043E0000131518294E0918A8143FF310131918200
:1043F0008EE0E9888143FF310131E98088E0298935
:104400008143FF310131298182E069898143FF3194
:10441000013169817CE0A9898143FF310131A981A2
:1044200076E0E9898143FF310131E98170E0298A31
:104430008143FF31013129826AE0CA888243FF3219
:104440000132CA8064E00A898243FF3201320A8164
:104450005EE04A898243FF3201324A8158E08A890C
:104460008243FF3201328A8152E0CA898243FF329D
:104470000132CA814CE00A8A8243FF3201320A8249
:1044800046E04A8A8243FF3201324A8240E08A8A09
:104490008243FF3201328A823AE0CA8A8243FF3283
:1044A0000132CA8234E00A8B8243FF3201320A832E
:1044B0002EE0E1888143FF310131E18028E021894C
:1044C0008143FF310131218122E061898143FF3144
:1044D000013161811CE0A1898143FF310131A1815A
:1044E00016E0E1898143FF310131E18110E0218A49
:1044F0008143FF31013121820AE0618A8143FF312A
:104500000131618204E0A18A8143FF310131A1823E
:104510002B48FFF73FFE0298FFF74CFE2949012682
:10452000F643884260DD2849254A4118FD3277105C
:10453000914254D2204C6946A060002008700525A5
:104540002D0769460878401C08706888E060A168FB
:10455000FFF7BAFE2061411C41D0FFF71BFE6888BF
:10456000E0600298FFF726FEA06000283CD0694674
:1045700009780A292ED81549401829E0F1060000CB
:10458000FF07000000300050FFFFFF0000E000E0E8
:10459000084DF9AD2942FA3F0088C34000007A4433
:1045A000977E995A7C930640271186A6913B0D4031
:1045B00000002440AA21F44A50540020FC117A0043
:1045C0007C04000040420F0094EF85FF18EE85FF49
:1045D0002928B6D20849A0684018A12809D300208C
:1045E000FFF7D8FD3846FEBD0020FFF7D3FD30466B
:1045F000FEBD6888E060FEBD54EE85FF3EB50D4D02
:104600006D1E14D002880A42FAD16D1E0FD00288A6
:104610000A42FAD0084A13680124234313606D1E2E
:1046200005D002880A42FAD1044A10683EBD002033
:104630003EBD0000C0C62D0010E000E018E000E024
:1046400010B50446C1B2062000F0C1F8210A0720C7
:1046500000F0BDF800F0B0F810BD10B50446C1B2CE
:10466000002000F0B4F8210A012000F0B0F800F0BA
:10467000A3F810BD10B50024002803D0401E01216E
:1046800081408CB2E1B2042000F0A1F8210A05209B
:1046900000F09DF800F090F810BD10B50446C1B2CE
:1046A000022000F094F8210A032000F090F800F0B6
:1046B00083F810BDC10710B5C90F082000F087F8B6
:1046C00000F07AF810BD10B500F03EF80020FFF7BA
:1046D000F1FF0020FFF7E1FF0020FFF7CBFF0020F4
:1046E000FFF7BBFF0020FFF7ABFF10BD10B5014681
:1046F0000B2000F06CF800F05FF810BD10B5044618
:10470000002000F076F8012000F073F87D20C00052
:10471000604300F079F8002000F06BF810BD10B590
:104720000021092000F053F800F046F8012109208B
:1047300000F04DF800F040F80021092000F047F8A3
:1047400000F03AF810BD00002E4900220A80032034
:104750000002C880088148818881C8810882488217
:104760008882284940390A80C88008814881888128
:10477000C881088270472349088070472149403921
:104780000A88000712091201000F02430A807047CD
:104790001C4A403A11881023C0079943C00E0143B8
:1047A00011807047174A403A11882023C007994367
:1047B000800E01431180704700B50020FFF7F2FF23
:1047C0000120FFF7EFFF0020FFF7ECFF00BD30B541
:1047D00005460C460020FFF7DBFF0A480480284608
:1047E000FFF7CCFF0120FFF7D3FF0020FFF7D0FF3A
:1047F00030BD00B501460A20FFF7E9FFFFF7DCFFF7
:1048000000BD00008030005001010748814200D9FE
:104810000146064800220261416182610521016171
:104820000169C903FCD57047FFFFFF0000E000E00D
:10483000001D0321401E037812021A43491EF9D5B8
:1048400010467047F8B502464A40D40F42004B006C
:1048500052085B089A4202D20246084611464A00B4
:1048600023D0C30D4A00DDB2120EAD1A202D35DA69
:1048700049020126490AF6058A19002C00D0524245
:1048800020214F1B1146B9402A411018C20D9A42EF
:1048900021D0002C17D0012D08DCDA05801AD20FA8
:1048A0008019D207DBB200F09CF9F8BDDA05801A56
:1048B000012340001B06C01880185A428018CA0FF6
:1048C0001043490007E04908C2071143DA05801A7E
:1048D00080194008801800F07CF9F8BD61000122C1
:1048E000511A001BF7E70122D2075140AAE7012223
:1048F000D2075040A6E7024670B54A40D30FDB0707
:1049000040002DD04A002AD0010E140E09190002D1
:104910001202400A520A8418E50104465443000A70
:10492000120A2E045043A4194219200CC543AA1898
:10493000120C01257F39521CAD03521912042404B4
:1049400000D0521C104301D44000491EC2B20C06D4
:10495000C0092018401C4008802A02D003E0002033
:1049600070BD40084000002900DA0020184370BDE7
:1049700070B502464A40D50F40004A00ED07400896
:104980005208002814D0002A12D0C40DD30D4102C1
:104990000120C0055202490A520AE41A09181218E5
:1049A0007D34914201D3641C00E04900002C01DAFF
:1049B000002070BD0023914201D3891A03434008AF
:1049C00049000028F7D100290AD0914202D10121E3
:1049D000C90705E0914201D2012101E00121C9434B
:1049E000E005C018401900F0F4F870BD420005D091
:1049F0004200120E52428A4201DB00207047C90574
:104A000008187047F0B50C465C4085B0E40FE40729
:104A100003944C0000266408590094464908024655
:104A20000296224321D062460A431ED06200570DEF
:104A30004A000E032303550D012402462C49240588
:104A4000781B1B0B360B401823432643614600900E
:104A50001C46501AB44103D30098401C009002E059
:104A6000921800985B41002803DA0020014605B047
:104A7000F0BD0020012109050746864611E0644685
:104A80001D46141BB54106D36546521BB3417446FF
:104A900007430C43A646CD0740084908284392180F
:104AA0005B4105460D43EAD11046184313D06046DA
:104AB000194650407140084303D100220123DB070F
:104AC00009E06046101AB34102D20122002302E03D
:104AD0000122D2435310009874460105381C6141ED
:104AE000029C039D0019694100F04AFBBFE70000EA
:104AF000FD030000C217C10F504010B54018CA078F
:104B00009623002100F06DF810BD10B50022962309
:104B1000114600F066F810BDC20F410040020123AB
:104B2000400ADB05D207090EC0187F2901DA0020F0
:104B30007047962903DC9623591AC84001E096393C
:104B40008840002AF4D040427047410040020122D0
:104B5000400AD205090E80187F2901DA002070472B
:104B6000962903DC9622511AC8407047963988402E
:104B70007047C20FD207400040080BD0C10D072379
:104B8000DB01C91840020905400A1143C208400769
:104B900011437047002001467047CB0FDB074900E7
:104BA00010B5490802460A4307D00A0D0724090335
:104BB000E401090B121B002A01DC002010BDC90012
:104BC000440F0C43C100E018D205801800F001F832
:104BD00010BD002904DA401C490001D14008400002
:104BE000704770B40024050C05D11024000402D1D4
:104BF000002922D01124050E01D108340002050F2E
:104C000001D1241D0001850F01D1A41C80000028C2
:104C100001DB641C4000002908D020252E1B0D4616
:104C2000F540A14000D00121294308431B1B010688
:104C3000DB1D000A002B02DA002070BC7047DB0588
:104C4000181880180029F8DA401C4900F5D170BC0A
:104C50004008400070470000064C0125064E05E064
:104C60002046E36807C82B4398471034B442F7D373
:104C7000FBF7EAFBEC5300200C54002003B401487E
:104C8000019001BD551B020003B40148019001BD14
:104C9000CF2B030003B40148019001BD0F3B03007B
:104CA00003B40148019001BDCB2C030003B40148BB
:104CB000019001BD0990020003B40148019001BDBB
:104CC000C12D030003B40148019001BD0921030077
:104CD00003B40148019001BDC92D030003B401488C
:104CE000019001BD2B69020003B40148019001BD90
:104CF000EB31030003B40148019001BD3D320300D4
:104D000003B40148019001BDD721030003B4014859
:104D1000019001BD2F81020003B40148019001BD43
:104D2000938F020003B40148019001BDCD8C0200B5
:104D300003B40148019001BD418F020003B4014852
:104D4000019001BD1F21020003B40148019001BD83
:104D50005D80020003B40148019001BDA73A030041
:104D600003B40148019001BD913B030003B4014825
:104D7000019001BD2F2F030003B40148019001BD34
:104D8000998F020003B40148019001BDB780020071
:104D900003B40148019001BDB326030003B40148E8
:104DA000019001BDFD3D030003B40148019001BD28
:104DB000197D020003B40148019001BD05220200E3
:104DC00003B40148019001BD2F22020003B4014841
:104DD000019001BD0B91020003B40148019001BD97
:104DE0003126030003B40148019001BDA52803004A
:104DF00003B40148019001BDD5AF020003B40148DE
:104E0000019001BDA1A5020003B40148019001BDBC
:104E1000E3A5020003B40148019001BD87A8020088
:104E200003B40148019001BDA7A9020003B40148E1
:104E3000019001BD93AA020003B40148019001BD95
:104E400095AB020003B40148019001BDF9AB02002B
:104E500003B40148019001BD69AC020003B40148EC
:104E6000019001BD17AD020003B40148019001BDDE
:104E700077AD020003B40148019001BDF1AD02001D
:104E800003B40148019001BD85AE020003B401489E
:104E9000019001BD11AF020003B40148019001BDB2
:104EA0003350020003B40148019001BD554802008F
:104EB00003B40148019001BD1F50020003B4014832
:104EC000019001BD213B030003B40148019001BDE5
:104ED0007F0C030003B40148019001BDAB0C03003B
:104EE00003B40148019001BDBF22020003B4014890
:104EF000019001BDEB26030003B40148019001BD00
:104F00003524030003B40148019001BDDD200300F6
:104F100003B40148019001BD533B030003B40148B1
:104F2000019001BD9D20030003B40148019001BD23
:104F3000B123030003B40148019001BD49E502001B
:104F400003B40148019001BDF9E3020003B4014834
:104F5000019001BDE123030003B40148019001BDAC
:104F60004BCD020003B40148019001BD99D102006C
:104F700003B40148019001BDABD0020003B4014865
:104F8000019001BD69D0020003B40148019001BD48
:104F900077CF020003B40148019001BD01CC0200AB
:104FA00003B40148019001BD29CC020003B40148BB
:104FB000019001BD15D2020003B40148019001BD6A
:104FC0008DD2020003B40148019001BD8D3D030064
:104FD00003B40148019001BD773B030003B40148CD
:104FE000019001BDD729030003B40148019001BD20
:104FF000652C030003B40148019001BDDB2E0300C2
:1050000003B40148019001BD231D020003B401480F
:10501000019001BDC32C030003B40148019001BD00
:105020001531030003B40148019001BD3B66020045
:1050300003B40148019001BD2B66020003B401488E
:10504000019001BD038D020003B40148019001BD30
:10505000CF8F020003B40148019001BD1B6602001E
:1050600003B40148019001BD7920030003B4014855
:10507000019001BD2129030003B40148019001BD45
:10508000D990020003B40148019001BDC768020035
:1050900003B40148019001BD0D2C030003B4014885
:1050A000019001BDF580020003B40148019001BDEB
:1050B0007B6F020003B40148019001BDAF6E020096
:1050C00003B40148019001BD655F020003B40148CB
:1050D000019001BD213B030003B40148019001BDD3
:1050E000D722030003B40148019001BD152203003B
:1050F00003B40148019001BD2522020003B4014818
:10510000019001BD5B66020003B40148019001BD3E
:105110005D61020003B40148019001BD0D5302001E
:1051200003B40148019001BD7762020003B4014855
:10513000019001BDED2E030003B40148019001BDB3
:10514000B120030003B40148019001BD3F2F0300CB
:1051500003B40148019001BD472F030003B4014887
:10516000019001BDB72E030003B40148019001BDB9
:105170002528030003B40148019001BD613C0300F0
:1051800003B40148019001BDCD3C0300F8B5040C07
:105190008BB2264682B25E430D0C1046370C584344
:1051A000360480190021794116466E43370C3604C7
:1051B0008019794126466E438919F8BD02E008C876
:1051C000121F08C1002AFAD170477047002001E081
:1051D00001C1121F002AFBD170470101000A0428F7
:1051E0000A040203AA0055032A00A001FFFF2C01B4
:1051F0000A000000857502000B0000006B7A0200B7
:105200000C000000CB7902000D000000A175020027
:105210000E000000D37502000F000000F3790200B9
:1052200010000000FD750200120000001776020059
:10523000110000005D760200130000008776020076
:1052400014000000B176020015000000D7780200BB
:1052500016000000097902001B000000F77602002A
:105260004D0000005779020017000000217A02006B
:1052700018000000137802001900000053780200A3
:105280001A000000957802001C0000008D7A0200D0
:105290001D000000AD7A02001E000000437A0200EB
:1052A0001F0000007377020020000000C377020097
:1052B00021000000F37A020049000000317B020067
:1052C00000080000490F0020010000003B7B0200A5
:1052D00009000000537B0200050000007D7B0200F6
:1052E00006000000A77B0200020000000B7C020009
:1052F00007000000CF7B020000000000F97B0200E5
:10530000030000006B7C0200040000008D7C0200A2
:1053100008000000F77C02004C0000006D7E0200D7
:10532000F0510020260000005443030020530020C9
:105330003204080006000100000000008053002035
:10534000A4040800020001005510002045110020AF
:105350002D150020EB150020191600203112002019
:1053600095120020F5120020FFFF0000E70F00203B
:1053700002FC00007D92020003FC00008992020002
:105380006853002003000000FF003F00FF03FF01FF
:105390001130EF00FFFFFF000000020000010000DD
:1053A0002C0000001230EF00FFFFFF00000004009F
:1053B000000100002C00000000421F0000FFFF0061
:1053C0000000020000010000040000001120C200E3
:1053D000FFFFFF0000000200000100000C000000C1
:1053E000FFFFFFFFFFFF5257210000006454002021
:1053F00020900020B4000000CC5100206807080075
:10540000202A0800E0050000CC5100200000000028
:1054100064000000800C000000000000000000009C
:10542000000000000000000000000000000000007C
:10543000000000000000000000000000000000006C
:10544000000000000000000000000000000000005C
:10545000000000000000000000000000000000004C
:045460000000000048
:040000052000044192
:00000001FF
