:020000042000DA
:1000000000980020C5040020CD040020E504002055
:1000100000000000000000000000000000000000E0
:10002000000000000000000000000000FD040020AF
:10003000000000000000000015050020170500204A
:100040008B1E0020851F00203D2F0300731F002002
:10005000F31E0020BD2F03009D1F0020A51F0020C0
:100060001905002019050020DF1F0020DD2F0300E7
:10007000A77E02001905002019050020190500209F
:100080001905002019050020190500204D1D00202C
:10009000511D0020551D0020591D00205D1D002010
:020000042000DA
:10016000320000004B050020FF1300209D080020F6
:100170000000000000000000A77D0200017E0200D8
:100180000F7E02004B7E0200697E0200857E020027
:10019000AD7E0200FD1D0020310500200B0E002069
:1001A000150E002000000000000000003F000000CD
:1001B000F48B002000040000140D0800480100002A
:1001C0000809080000040000680E0800200500006F
:1001D000000000002000000048000000580000005F
:1001E00068000000260300003A0300004E030000F0
:1001F00054030000D02800008E2E000001000000F3
:100200008813000089140020892B0020633000200F
:10021000572303001326030097710200791D002065
:10022000030000002F1C02009D08002001000000B8
:1002300087450200BF4402006D2200206331002088
:10024000A732002067330020577F0200C57F0200DD
:100250004A430020BB8002009B81020049820200C9
:10026000E98202000D830200738302008983020089
:100270000B8502003186020033870200E589020007
:100280001F8A0200278D02005B8A02003F8B02005A
:10029000118C02005F8C0200690D0020ED8C0200C1
:1002A000832E0020754D02002F4E0200100000002A
:1002B00020030000803E00003F0000000D00000011
:1002C0002600000000000000000000000000000008
:020000042000DA
:1002D000504600030003983A6400F401B80B000C88
:1002E000B80B120030003000CD009A01120024003B
:1002F00030006400B0001800280012001200D0077F
:100300000000FFFF000000000000000000000000EF
:100310001F00000244413134353831000000000034
:1003200000000000000000000000000000000000CD
:0403300000000000C9
:020000042000DA
:10035000FFFF010000C201000000000000000000DB
:100360000000F4010100011B0A071AFFD200021568
:10037000585CDE931B0142CC9A1325009BEDC65EB0
:1003800000010002C5000000000009FF0060525794
:100390002D424C450000000000000000000000005D
:1003A00000000000000000000000444131343538F6
:1003B00078000000000000000000000000000000C5
:1003C000000000000000000000000000000000002D
:1003D000000000000000000000000000000000001D
:1003E0000000000000000000010000CAEA80D00701
:0403F000064064322D
:020000042000DA
:100450000348854603F042FD00480047211C020086
:1004600000980020134906200880FF20124901301F
:10047000086005200007818A0906FCD541898908A2
:100480008900418141890906FCD50C4A91683E23C7
:1004900099432E31916000220280018A0F231B02B2
:1004A0001943018201210648C90404C1401EFCD53C
:1004B00062B670470034005080E100E00033005025
:1004C000FF0B00001548804715480047042071467F
:1004D000084203D0EFF3098012490847EFF3088080
:1004E0001049084704207146084203D0EFF3098001
:1004F0000D490847EFF308800B490847042071466F
:10050000084203D0EFF3098008490847EFF3088059
:1005100006490847FEE7FEE7FEE700006504002005
:1005200051040020A1080020410A00202D100020C5
:1005300010B5C4490020086000F011FC01208007BC
:10054000016B49004908016310BD1CB5BE4901207B
:100550000870BE490820088003F0D2FC01F0C4F8FE
:10056000FF24013435202146000103F0CFFC01F0C7
:100570001FFC00F0D4FAB64801780170B548017844
:100580000170012003F0C8FC00F09CFE00F02CFB81
:10059000042000F005F9072000F002F90A2000F01D
:1005A000FFF8062000F0FCF80B2000F0F9F801201D
:1005B00000F0F6F8022000F0F3F8002000F0F0F868
:1005C000A548806803F0AEFC00F0E7FC00F019FDE0
:1005D000A00501682143016000F0C4F9142000F077
:1005E0007CFB142000F087FB01F057FEFFF7A0FF13
:1005F000002005242407E08298484188E0229143A6
:10060000A0314180012003F093FC0227944E042581
:100610002089000622D501208007006B00041DD42C
:1006200003F08CFCC00719D1042003F08DFC01906D
:1006300003F090FC019800280CD0002001901420B9
:1006400000F059FB042101A803F08AFC002801D026
:1006500000F098FB00F0ABF80028D9D172B601F099
:1006600017FD69460870042806D002280CD003281C
:100670000AD001287ED091E07A480078012802D083
:100680000320087000E00F70208A284320827648FB
:10069000C0690128087811D9032849D103F066FC04
:1006A000002845D003F068FC002841D0032003F067
:1006B00069FC00283CD06D48077008E0032837D15A
:1006C00003F060FC002833D06849012008703069CD
:1006D00028433061608A202188436082208A384321
:1006E000208268460078618A022823D029436182EB
:1006F0007F212288890180231A4322800022521CF4
:10070000D2B20A2AFBD3628A10231A436282584A61
:10071000491E516121888022914321800021554A40
:10072000032811700DD0022812D0032810D02DE01C
:100730006846C1E729436182618A10229143618240
:10074000ECE7608A802290436082608AA8436082DE
:1007500042484288FF2301339A4342806288464BD5
:100760001A80428801231A43428001910198401C5B
:10077000019000E011E01428F8DB60898008800017
:10078000401C608160894006FCD5618030BF00F06C
:10079000CFF83069A843306100E030BF62B637E778
:1007A000C106C90E01208840344908607047FEB573
:1007B000334C002520782E46012806D13148C06BE5
:1007C000002802D1267001F0B3FD2F4801882F4A7E
:1007D0001288914214D32178012911D10680042175
:1007E000684601700E214170032181700121C170A2
:1007F000274981800022062103F0CAFB01F088FE10
:1008000003F0A8FB234F3888134C01280AD103F0CA
:10081000C5FB214908802080012003F0C5FB03F0BF
:10082000C9FB3E8003F0CCFB002807D06068411E66
:100830006160002800DD01252846FEBD01256420F9
:100840006060F9E7FC0408009413080000330050CE
:1008500000000800D02808000C45002020000050AF
:1008600000ED00E078030800E0010020B007080078
:1008700000800040BE130800C013080080E200E0C2
:1008800028450020000508002E4500202C450020AA
:10089000404000003C450020F4050800704700007F
:1008A00005221207118A042319431182118A022397
:1008B000194311821189402319431181184B0121D9
:1008C0001960184B08211980518A802319435182DD
:1008D000154903680B6143684B6183688B61C3688A
:1008E000CB6103690B6243694B6283698B62C369A5
:1008F000CB6208630D48836A4B63C36A8B63036BE7
:10090000CB63C36B084940310B60436B4B60806B1A
:100910008860908A800601D500BE7047FEE700001F
:1009200080E200E0003300504018080000ED00E0D5
:100930003E480178002902D08021417070473C492F
:10094000002008703B49C87070473848017800297A
:1009500002D0812141707047354901200870354926
:10096000C870704731480178002902D08221417057
:1009700070472F49022008702E490120C870704727
:100980002A488178002904D0491E0906090E817081
:1009900017D142780021002A04D09207920F0270EA
:1009A000417004E00278002A01D0521E0270120643
:1009B000120E017005D0012A02D0022A01D1D1E71E
:1009C000C3E7704710B5194CA078401CA070207880
:1009D000002805D103F0F4FA421CFFF7A9FF2270AA
:1009E00010BD12490120C870704710490020C8701E
:1009F00070470E48C07870470020EFF31081012245
:100A000082F31088052212071289120605D40A48BB
:100A1000028901231A4302811846002900D00121CE
:100A200081F31088704705480078704795130800D7
:100A300078030800B207080000330050BC13080018
:100A400005221207518A80231943518212490368F3
:100A50000B6043684B6083688B60C368CB6003693D
:100A60000B6143694B6183698B61C369CB61086228
:100A70000A48836A4B62C36A8B62036BCB62C36BA7
:100A80000B63436B4B63806B8863908A800601D550
:100A900000BE7047FEE700000018080000ED00E00F
:100AA00070B547480021417001700421454B8170A9
:100AB00018694E1F002801D0304600E00120C11700
:100AC000020F09011143020118613F48046845689B
:100AD00022432943026041605969002900D101265F
:100AE000F117F20E49015E61114304687201436817
:100AF000224319430260416070BD38B500240322CF
:100B00000223120204212046009400F08AFE0022F3
:100B1000012305211046009400F083FE38BD10B576
:100B200005242407208A022188432082A08A000706
:100B3000FCD526484188FF22013211434180A0881C
:100B400080210843A0800321092003F03FFA00F030
:100B500079FAFFF7D2FF608A20210843608210BD36
:100B60001B48416806229143091D416041680122EA
:100B7000114341604168382211434160416840227D
:100B80009143416041680322520211434160416830
:100B900082151143416041680722D202114341602E
:100BA000416802149143416001150A4801600A4AF4
:100BB0001068FF231B0498431060084801607047C9
:100BC00058450020209000202045002020000050A3
:100BD0000002004000E100E008E400E080E200E004
:100BE000BE49AA204860704770B5052109070889E9
:100BF000302290430881088980231843088108899E
:100C000080088000401C0881088908221043088160
:100C1000B34804881C4304804C8A94434C820D8959
:100C2000402425430D810D8A0426B5430D828D8A0B
:100C3000AD07FCD5A94EAA2575608588F026B54379
:100C4000B0358580858803263602B543FF350135EA
:100C5000858085882D092D01858085880126B6022D
:100C60003543858085887600354385808588760084
:100C7000354385804D8A95434D8202885208520043
:100C8000028002889A4302800A89A2430A8140892D
:100C9000800503D5924905206031888001208007B6
:100CA00001688215914301608E4801683F2252021B
:100CB00091434214891801600168020311430160E5
:100CC00070BD0321884809028181082242800021E9
:100CD000491C9629FCD38280704784494880088843
:100CE00003221043088008880422104308807B49AF
:100CF0000120087070477CB5784C217800292DD0F0
:100D00007A490A885207FCD4CA88009289880191DE
:100D10001104019A8918009175494843009903F01C
:100D20005BF90090002020700098A060009803F00C
:100D30002EF8054629466F4802F05CFF0A2102F0B2
:100D400097FF03F044F8E060284603F054F86A4A3D
:100D50006A4B03F047F903F062F820617CBD10B5DF
:100D6000674803F045F910BD70B55D4C6088C0065A
:100D7000050F03F043F961881E2291436A00114375
:100D8000618070BD10B55F490120C863C86B002841
:100D9000FCD101208007C1695B480268914201D201
:100DA0000022026019238A1ADB019A4212D30160E1
:100DB00003F0F4F8554A1188884201D9411A00E03D
:100DC000091A89B2182905D31080012003F0ECF824
:100DD00003F0F0F810BD08B54049896848434C4914
:100DE00003F0FAF8009008BD08B53C490122D2038F
:100DF000C968904205D303F081FA8905800A084347
:100E000001E04843800A009008BD08B5FFF7E3FF02
:100E1000009008BD08B5FFF7E7FF009008BD401837
:100E20003721C00009014018704710B5394A002029
:100E3000117800290DD033490120C863C86B002800
:100E4000FCD101208007C06933490968884201D27A
:100E5000012010BD0020107003F0B2F8022803D06A
:100E600003F0AEF801280BD12C490820088005209A
:100E70000007818A8906FCD4418A802291434182FD
:100E8000002010BD0020704708B515494A8801238D
:100E90001A434A8000210091491C00911429FBDB70
:100EA000052109074A8992089200521C4A814A8901
:100EB0005206FCD54B89042213434B814880488954
:100EC00090434881888A0006FCD5488980088000C4
:100ED000488148890006FCD508BD00009C13080025
:100EE000200000500002004020300050001600504A
:100EF0000024F400002474497B14AE47E17A443F97
:100F0000E2040000C0000040F8050800F4050800F5
:100F100040420F0094130800184500200033005091
:100F2000FFB581B01F460E464D780C78002003F0C7
:100F30006BF8042824D000281DD121E04848816A9C
:100F40002E206043091888880207120F130003F04F
:100F500061F8070505050F050F050F008204920EC5
:100F6000062A05D27278012A12D0072210438880FF
:100F7000641C6407640F28466D1EEDB20028DDD1A5
:100F80003B463146039A019803F04AF805B0F0BD9C
:100F9000204603F04BF80020F8E770B5314803789D
:100FA000021D0021304D07E0CC00165D002E01D15E
:100FB0002418A560491CC9B29942F5D370BD70B51B
:100FC00005460C46103C3F2003F01EF800280FD0C9
:100FD00026488068322806D925498D4201D03C2810
:100FE00001D9002070BD2146204803F025F806E015
:100FF000204603F027F801213F2003F029F80120C3
:1010000070BD10B517490B780A1D002005E0C4001B
:10101000145D3F2C04D0401CC0B29842F7D310BDE1
:10102000114AC00010324018826010BD8169203919
:10103000897F022905D20C4A8900083A51588161FA
:101040007047FEE70C480B4901610C4941610C49AE
:1010500081610C49C1610C4901620C4941627047D0
:101060007C0408004C080800A0440020FC0508008F
:10107000103400001C4B02000084004001DFFFB56B
:10108000C4A8020000DFF8B57C450300451200202B
:10109000F3B581B0002000900D464A880446014611
:1010A0006B46019802F0DAFF060009D10098C48867
:1010B000019802F0D9FF401E844200D2204684B23B
:1010C00022460B21019802F0D5FF0746002E06D0DC
:1010D0006A882978334602F0D3FF0020FEBD7C8069
:1010E000009922460831381D02F0D0FF384602F040
:1010F000D3FF688802F0D6FF0028EED001990223C2
:101100000A0201890C32044802F0D2FF698801808A
:1011100002F0D4FFE1E7000012300000FFB5064600
:10112000807A81B0012805D0022340490D68002D46
:1011300002D006E00023F8E7022870D0012871D021
:101140003B4D3C4CF288A08BB18880B202F0BCFFD2
:101150000090E0694E23042158434B042268C018D4
:101160001152E0694E235843344B22683249C0186B
:101170001152E0694E23717A5843304B09025531C0
:101180009B1E2268C01811520098E26940304E2719
:1011900041887A431B11294F19433F1D2368D219F7
:1011A0009952E1694E277943244F4B2252010C3763
:1011B0002368C9195A5221464031E269097B4E27FA
:1011C000049B7A4309021D4F1943BF1C2368D2199F
:1011D00099522368E1694E246143184C002214346B
:1011E00009195A52164A962111631549327A403923
:1011F0000A610D62049941760299009802F06AFF33
:101200000398002803D00146009802F063FF00987D
:1012100002F066FF009805B0F0BD00E002E0FF2597
:10122000F5358EE7024DFA3D8BE70000B01308005C
:10123000DC050000E0010020278000000A00080013
:10124000C0000040FFB581B01E4614460F46150A87
:10125000104602F0D9FE00280DD00849A800085811
:10126000C07B002807D0334622463946019802F059
:101270003DFF05B0F0BD0020FBE70000C006080000
:101280000F4A518807235B02994340020143518072
:101290007047052000070188302211430180018832
:1012A0000322114301807047052000070188302286
:1012B00091430180018889088900018070470000FE
:1012C0008000005030B5924A9249D00504888023AE
:1012D0001C430480904C65892D0701D4521EFAD21C
:1012E0008E4C012222608E4C0A8822808D4A4988C9
:1012F000118001889943018030BD002070477047FC
:10130000704770470020704701218907086B07224A
:10131000104308637047704730B5844982480860BD
:1013200083494C200880824C824B203C2382834995
:101330008148488083488249018081491931418030
:10134000222141818121890001827F4941827F4997
:1013500001837D49113141837A4A7D492032918050
:1013600041227C4912018A807B4ACA807A4D10351D
:10137000CD810A824A82921C8A826A1FCA82FF2217
:1013800046320A83754A4A83754A59211180744945
:10139000744D20310D8043254D80734D5582D522EB
:1013A0008A80FF22D3320A81704A4A81704A8A8138
:1013B000714A704911805E49704A60394A80CA8812
:1013C00010252A43CA80674A0A3A0A81584D6C4A56
:1013D000403D6A80638208224A815249604A0988F6
:1013E000403A11824E49674A098811806649097856
:1013F000002901D03021018330BD4008704700B57D
:101400008BB0624A4262624A8262624A4261624AC6
:10141000C262624A0260624A0262624A4260624A90
:10142000C261424A40480021106040484038026B87
:1014300003129A430263426B1F231B049A43032344
:101440001B04D218426359480268C3129A430260CF
:10145000026803139A43026068464154491CC9B2AA
:101460002829FAD301462822514802F00FFEFFF73F
:1014700053FF02F093FD4F490880002002F094FDD5
:1014800002F098FD0BB000BD10B5284A0F21264888
:101490000902106025484038426B1F231B049A4301
:1014A00003231B04D218426300060268D208D2004C
:1014B000026005200007028992089200521C0281F6
:1014C000028908231A430281028A0A430282FFF733
:1014D00023FF3948006B0078002804D03748008883
:1014E00013496039C880012002F022FD10BD264852
:1014F0000078704724490120087012493020088381
:1015000070472149002008700E4910480883704731
:10151000A0860100087F04002000005000800040E9
:101520007A030800AE0408004C0554078000004010
:10153000602C00507F7F0000AC290000002200508A
:1015400009090000002400502204000030D00000EF
:10155000EE110000002500502E0200004420000083
:10156000402800500D95000002420000E4DC00001D
:101570001092000053780000002A00508B100000E9
:101580009DD5000000260050B4130800FB12002077
:10159000FF12002005130020091300200113002072
:1015A0001713002003130020FB130020000200404B
:1015B00020000800F405080020020020CE050800E5
:1015C00008430121890303460B4343490B80434BE6
:1015D00018430880092002434A8070473E490A8820
:1015E0000F239B0100079A43800D02430A80704736
:1015F000394900200880704737483949028802235A
:101600001A430280491E02D302889207FAD40021AD
:101610000181408970470AE000BF00BF00BF00BFE2
:1016200000BF00BF00BF00BF00BF00BF00BF401E23
:10163000F2D2704770B50222510204464E00304685
:10164000FFF7BEFF1420FFF7E6FF002C01D00920B2
:1016500000E00720FFF7C2FFFFF7CEFF054601209D
:10166000FFF7D9FF022200213046FFF7A9FF002C27
:1016700001D0092000E00720FFF7B0FFFFF7BCFF13
:101680004019154A0021118070BDF0B5124C154863
:1016900020801420FFF7BFFF01256D02A580E580A3
:1016A0002088E9000843208020888E10B0432080E5
:1016B000FFF7A2FF0746208830432080FFF79CFFFA
:1016C0000246780071424018281A52005118691ACF
:1016D000A080E180F0BD0000001500500140000036
:1016E000A086010001480000FEB50020F84E034628
:1016F00028220021424392198C00491C13510A29C7
:10170000FADB401C0428F3DBFFF7CAF9F14800229A
:101710000260426015460024EF486900475A0120E4
:10172000A04080B207421AD0282068438019A10047
:101730004058411C17D000280ED0C117224602F095
:10174000DBFC2A0102F0D8FCE24B1A685B6810430C
:10175000E04A194310605160641C0A2CDFDB6D1CE9
:10176000042DD8DBFEBD0095019400BEE5E7F8B579
:10177000164604460D460A461F460120002102F087
:10178000BBFC220102F0B8FCD24B1A685B68104027
:101790001940084300D100BE032C00D10424CF49D6
:1017A00060014018690008183E43C680F8BD70B556
:1017B00004460D460A460120002102F09DFC22014C
:1017C00002F09AFCC34A136852681840114008435B
:1017D00000D100BE032C00D10424C0496001401890
:1017E0000121A940818070BD70B504460D460A46AE
:1017F0000120002102F080FC220102F07DFCB54AAC
:101800001368526818401140084300D100BE032CF1
:1018100000D10424B149600140180121A940418050
:1018200070BDFFB581B00C4605460A461F46012033
:1018300000210A9E02F060FC2A0102F05DFCA54B2B
:101840001A685B6810401940084300D100BE002EA2
:101850002146284602D0FFF7C7FF01E0FFF7A7FFA8
:101860003B4621462846039AFFF781FF05B0F0BDAD
:1018700070B5154604460E460A460120002102F0C6
:101880003BFC220102F038FC924B1A685B68104066
:101890001940084300D100BE002C07D0601E8F49BC
:1018A000400070314018012C02D002E00020F6E721
:1018B000083601880122B2409143B5400D430580AE
:1018C00070BD70B504460D460A460120002102F0A5
:1018D00013FC220102F010FC7E4A13685268184083
:1018E0001140084300D100BE032C00D104247B49E1
:1018F0006001401800880121A940084000D0012063
:1019000070BDFFB514460D4606460A4681B001205B
:10191000002102F0F1FB320102F0EEFB6D4B1A6880
:101920005B6810401940084300D100BE6CA00068FD
:1019300000906C48838920461338FF220132824090
:101940000B999343002901D0012700E00027D1071C
:1019500001D0002138E0910701D5012134E0510781
:1019600001D5022130E0110701D503212CE0D10679
:1019700001D5042128E0910601D5052124E0510676
:1019800001D5062120E0110601D507211CE0D10573
:1019900001D5082118E0910501D5092114E0510570
:1019A00001D50A2110E0110501D50B210CE0D1046D
:1019B00001D50C2108E0910401D50D2104E051046A
:1019C00001D50E2100E00F218F4046493B438B811A
:1019D0008B890B9F9B099B013B438B810B8A934314
:1019E000D70701D0002238E0970701D5012234E063
:1019F000570701D5022230E0170701D503222CE05A
:101A0000D70601D5042228E0970601D5052224E057
:101A1000570601D5062220E0170601D507221CE053
:101A2000D70501D5082218E0970501D5092214E051
:101A3000570501D50A2210E0170501D50B220CE04D
:101A4000D70401D50C2208E0970401D50D2204E04B
:101A5000520401D50E2200E00F220A9F97403B431B
:101A60000B820B8A02460127384690408343C20707
:101A700001D0002245E0820701D5012241E0420762
:101A800001D502223DE0020701D5032239E0C2065A
:101A900001D5042235E0820601D5052231E0420657
:101AA00001D506222DE0020601D5072229E0C20554
:101AB00001D5082225E0820501D5092221E0420551
:101AC00001D50A221DE002050ED50B2219E0000007
:101AD0002090002020450020E044002000300050ED
:101AE00001090F1900140050C20401D50C2208E0AE
:101AF000820401D50D2204E0400401D50E2200E04D
:101B00000F220498904003430B8295486100081807
:101B1000418B6A468909925D8901521911434183BB
:101B2000A007C20EFF21914080209040002C0BDACC
:101B30002207120F083A93088A4A9B009B18DA6919
:101B40008A430243DA6107E0A308874A9B009B1897
:101B50001A688A4302431A60E006C00E8740834831
:101B6000076083E67E4940310A8A133801218140AB
:101B70000A40C80701D0002038E0880701D50120BD
:101B800034E0480701D5022030E0080701D50320E2
:101B90002CE0C80601D5042028E0880601D50520E0
:101BA00024E0480601D5062020E0080601D50720DC
:101BB0001CE0C80501D5082018E0880501D50920DA
:101BC00014E0480501D50A2010E0080501D50B20D6
:101BD0000CE0C80401D50C2008E0880401D50D20D4
:101BE00004E0480401D50E2000E00F20C240D0B22E
:101BF000704710B55A4C4034238A13380122824072
:101C00009343D00701D0002038E0900701D5012090
:101C100034E0500701D5022030E0100701D5032041
:101C20002CE0D00601D5042028E0900601D505203F
:101C300024E0500601D5062020E0100601D507203B
:101C40001CE0D00501D5082018E0900501D5092039
:101C500014E0500501D50A2010E0100501D50B2035
:101C60000CE0D00401D50C2008E0900401D50D2033
:101C700004E0500401D50E2000E00F2081400B430A
:101C8000238210BD10B5364C4034E389012213384D
:101C9000114681408B43C80701D0002038E08807F7
:101CA00001D5012034E0480701D5022030E00807C3
:101CB00001D503202CE0C80601D5042028E08806C1
:101CC00001D5052024E0480601D5062020E00806BD
:101CD00001D507201CE0C80501D5082018E08805BB
:101CE00001D5092014E0480501D50A2010E00805B7
:101CF00001D50B200CE0C80401D50C2008E08804B5
:101D000001D50D2004E0480401D50E2000E00F208D
:101D100082401343E38110BD154A8000801880384B
:101D20004163704710B50446FFF7ACFF1049A000AF
:101D300040188038406B002801D0804710BDE10674
:101D4000C90E012088400B49086010BD1320E9E747
:101D50001420E7E71520E5E71620E3E71720E1E781
:101D6000C013005000ED00E000E400E000E100E0FE
:101D7000C090002080E200E070B516460C46054693
:101D800001280FD106221749174802F0BBF9002895
:101D900008D006221449304602F078F90620207057
:101DA000002070BD32462146284602F0B1F970BDD0
:101DB00070B50E480E49C405228880252A4322802A
:101DC0000C4A53891B0701D4401EFAD20A4A01204B
:101DD00010600622044802F059F92088A8432080A8
:101DE00070BD0000A83C0300B5130800A0860100E8
:101DF000D47F0400200000500080004070B5012511
:101E0000AD07AC6B2046FFF705F8914902F0E4F806
:101E100027221201511A00D101218E4A506011600F
:101E2000286B08218843084328638B4804608B484B
:101E30000068002802D0A04200D200BE70BD10B5DC
:101E4000052000074189890708D041898908890050
:101E5000418183494A88520852004A800189802280
:101E600011430181018A042291430182818A8907F9
:101E7000FCD502F053F9012080070169490700D51C
:101E800000BE01694907FCD510BDF8B5754EF08854
:101E900000282DD10120F0807349082008800527F3
:101EA0003F077889800720D0B88A400701D5FEF720
:101EB00036FE6B4D28888021084328806B4CFF201C
:101EC000608004202080FFF7E4F97D21C900E088CC
:101ED000A288000480188842F9D905202080B088A3
:101EE00078802988802081432980614910200860FA
:101EF000F8BD70B5FFF7D8F9FFF7A1FF0026594CE0
:101F00000520E6800007418A80229143418256489D
:101F1000018949084900018101F0A0F801208007EA
:101F2000816904221143816102F0FEF850491020BA
:101F300080310125086002F0FDF802F001F914205B
:101F4000FEF7CBFE464826704089800510D56078A4
:101F500000280DD1474865700088C00708D10120CE
:101F6000FFF768FB8B218900884201D9022060704D
:101F700070BD10B502F0EAF800F062F839490120AE
:101F8000087010BD10B501208007008A000604D536
:101F900000F056F81420FEF7A0FE10BD10B502F0B8
:101FA000DBF810BD10B50124A407208A000715D561
:101FB00002F0D8F820684000400861000843206023
:101FC0002068C00FFCD12348803001680906090E43
:101FD00001D00121016023490420087010BD70B5B3
:101FE0002548008886062548B60E44682448006BBC
:101FF0000078002802D1304602F0BAF82148008962
:10200000184DC00507D520060FD5E0070DD0304686
:1020100002F0B4F803E0200607D5E00705D003205E
:10202000194928700888401C0880200407D5E0055D
:1020300005D50220154928700888401C088070BD0D
:1020400010B508490120887002F09EF810BD00000C
:102050007102000040000040C8130800C4130800CB
:1020600020000050BC130800003300500016005040
:1020700000E200E000150050002000500002004087
:1020800020020020002C00502E4500203A45002060
:10209000F0B5694F85B0786900260290FEF7A9FC7B
:1020A000664D002802D12879022801D10020029033
:1020B000FEF7BBFE00280DD102F06CF8002809D015
:1020C000E87801260028FAD005242407A08AC00752
:1020D00001D00426ACE001F031FF0028FAD12879C4
:1020E000002801D13869029055488069002801D044
:1020F00078690290A97802A8029F02F051F800289E
:1021000040D04E48817802A801F02AFF002839D03B
:1021100002F04CF8002835D000254A480297FEF717
:1021200074FE0746484A01208007016A914202D2A4
:10213000016AC829F9D801208007006AC82800D898
:1021400001253E48817802A802F02AF8002817D01D
:102150003A48817802A801F003FF002810D00298C5
:10216000002803D0002D01D0401E02903748FEF712
:102170004CFE374A014612781231022A03D003E09E
:1021800000F06CFF54E01131324A5289920500D5BB
:1021900000BEC21B0125AD07EB6B9B0A9B021343DC
:1021A000EB63EA6B2C4B89021A400A43EA63E96B42
:1021B000C902C90A40050143E963029804260028C0
:1021C00001D0001D029001F0E2FD2449096801F0F0
:1021D000D4FC01F0FCFD2249009008601749097900
:1021E000002900D0012101F0E7FF1E48C06A8047A6
:1021F0000027FEF747FE002808D02088302108433A
:10220000208020880321084320800127286B0004B8
:10221000C00FFBD014480168C905FCD5002F01D0C0
:10222000FFF742F801F0CEFF20898021884320810A
:10223000304605B0F0BD0000A0020020B207080043
:1022400050070800540B0000260200001D0D00007E
:102250007803080020000050FF03E0FFAC130800E3
:10226000C4130800080808000002004008B572B650
:1022700001F0AEFF052109074A8A684602800088FE
:10228000820892006846028002880120C00302434F
:10229000684602800088488208BD10B5FEF748FBFA
:1022A000FC48002101700222427081702522C27018
:1022B00032228280C1800181418181814182C1813C
:1022C0000182F54A13681403234313608182FEF7E9
:1022D00047FC10BD38B5EF4C207800280BD1208189
:1022E0006081A0816082A07869460870684601F02C
:1022F00075FF0220207038BD1CB5E64900220A8116
:102300004A818A814A820A8200788870FFF7E2FF58
:102310000421684601700E21417003218170012162
:10232000C170DE4981800022062101F031FE1CBD12
:1023300038B5D84C2078002816D1E080A1786846BE
:102340000170E17841706178817001F04DFFD44DEA
:1023500005E0684601F048FF002800D0FEE7E86B82
:102360000028F6D00120207038BD1CB50446042199
:10237000684601700F214170032181700121C170F5
:10238000C84981800022062101F002FEC14821785F
:1023900081706178C170A17841702179E278090279
:1023A00011438180FFF7C4FF1CBD38B5B94C2078BC
:1023B00000281BD1A1786846017025214170617801
:1023C000817001F011FFB848016AC2131143016224
:1023D000016A021491430162016A8214914301620D
:1023E000016A490A490201620520207038BD1CB506
:1023F00004460421684601700E214170032181705A
:102400000121C170A549002230318180062101F0EF
:10241000BFFDA0482178817061784170FFF7C5FF4A
:102420001CBDFEB5A14D02780121A04C20358902CA
:102430004F2A31D09E4B8E10542A39D0522A2AD19D
:10244000196047789B480078002855D09A48218821
:10245000314321802188C05D090A0902014321809E
:102460000120964980038880012028800820288048
:102470000620884908700421684601700E214170C9
:10248000032181700121C1708449002210398180AB
:10249000062101F07DFDFEBD002020802880874BB5
:1024A00003229A80824A803A1160854A1160E0E7EF
:1024B000196047787F480078002811D07E4821882D
:1024C000314321802188C05D090A0902014321802E
:1024D00001207A4980038880042028800220C6E7F2
:1024E000384601F045FE2088304320802088000ACD
:1024F000000238432080EBE7384601F039FE20889F
:10250000304320802088000A000238432080A7E75B
:1025100010B5604C2078012805D02078022802D020
:102520002078052807D15E48C06B00F0A7FC5C4806
:102530003C3001F05FFE0020207010BD1CB504216E
:10254000684601700E214170032181700121C17024
:102550005249002240318180062101F019FDFFF728
:10256000D7FF5149002008621CBD1FB504216846F1
:1025700001700E2141700B2181700121C17047490A
:102580001031818043490A89C2804A8902818A893F
:102590004281098A818100220E2101F0F9FCFFF7B6
:1025A000B7FF1FBD7CB504460421684601700F21AA
:1025B00041700321817039490125C57050318180F6
:1025C0000022062101F0E4FC227802213D48012A84
:1025D00004D0022A18D0FEF7ABF97CBD6278002A3D
:1025E00002D1A278002A0DD00571607836491922EF
:1025F0004843A17892015143411834484161FEF7A4
:10260000A4F97CBD0171FAE70171FEF7ABF97CBD5D
:102610000521090748807047F7B52D49CC0520886A
:102620008027384320802B484289120701D4491E55
:10263000FAD2C18B02221143C183002550E0264803
:1026400000210160009AAE00B2181204920C0261DF
:1026500041610421016001983018401C01F02AFA00
:1026600001990002895D08431B498A681205120F0F
:10267000082AFAD088618868C206FCD581072DD562
:10268000C10401D4800429D52088B84320800020CB
:10269000C043FEBD2845002000020040204000004D
:1026A000000508001E200000C0000040002000506F
:1026B00080E100E04A43002020000800002C005088
:1026C00080E200E0B207080000770100A0020020CD
:1026D000A086010020000050008000406D1CADB2BB
:1026E00002988542ABD32088B84320800020D0E7F1
:1026F000F0B50546401C4178027808022978052487
:10270000104300260127240785B001291ED0FB4B6A
:10271000FA4AC03B02290AD003290CD0042911D05F
:10272000052915D0062919D0072917D03AE01763D3
:102730000320000210E06188F14A121A8A4231D364
:10274000081803E0618881422CD3081A608029E0D0
:102750000020106301204002186123E0687800F037
:1027600037FF411C05D0811C05D02978072904D0EA
:1027700018E0012616E0022614E080B20090012243
:102780006946E048FFF748FF002800D003261020E4
:102790000090DC48012269461438FFF73DFF00280D
:1027A00000D003260421684601720E2141720521E2
:1027B0008172C7722878002814D0062814D0072800
:1027C00012D000206946C8818120C00169468881F5
:1027D00002ACFEF792F900220821204601F0D8FB56
:1027E00005B0F0BD6088EDE76846C681ECE77CB5D2
:1027F00004460078651C030001F00CFC09060A1170
:10280000151C202733483800607801F09EF82DE031
:10281000687829780002084301F081F826E06078A2
:1028200001F06AF822E0687829780002084301F094
:1028300056F8EDE7607801F07FF817E068782978BE
:102840000002084301F09CF810E068782978000243
:10285000084301F037F8A078002802D160780028FA
:1028600002D001F09EF801E001F082F804216846F0
:1028700001700E214170032181700121C170A249B4
:1028800081800022062101F083FB7CBD6078EBE7AC
:102890001CB5042269460A700E224A7005228A700D
:1028A0000122CA70984A103A8A800078C880684627
:1028B0000022082101F06CFB1CBD10B592B0042170
:1028C000684601700E214170452181700121C1705F
:1028D0008D490D2410318180847120228BA102A8A2
:1028E00001F08EFC6846C47120228CA10AA801F078
:1028F00087FC68460022482101F04AFB12B010BD57
:10290000F8B50E460121894B89044118DC05208861
:10291000802528432080864847893F0701D45B1ED5
:10292000FAD2844B01201860304601F0AFFB2088BA
:10293000A8432080F8BD70B586B0042269460A70AD
:102940000E224A700A228A700122CA706E4A6D4DA8
:10295000503A8A8002788A710022CA7102920A7300
:1029600001786B4600290ED0664C483402290ED0FF
:10297000644E143E04290ED0012912D0032919D027
:10298000052922D028E00222D91D284606E0062289
:10299000D91D204602E00422D91D3046FFF7B0FFC2
:1029A0001AE081784278080210430490012204A9B9
:1029B00028460FE004920592411C062204A801F06B
:1029C00065FB022204A9204604E0102004900122A5
:1029D00004A93046FFF720FE684600220D2101F0D1
:1029E000D7FA06B070BD10B5534CA06901F00EFCCB
:1029F0000020A06110BDF8B54178027809021143AA
:102A0000009187780321BE0035460835284601F03D
:102A100003FC0446042020700E206070711DA1701C
:102A20000120E070384821464038A0800020A07185
:102A3000E771F2B208310098FFF762FF3E49204685
:102A40008C613E4A294601F0A3FAF8BD1CB54178D5
:102A500002780B0213438478C11C22461846FFF704
:102A6000DBFD0421684601700E2141700521817053
:102A70000121C170244930398180002181710A46C9
:102A8000C471082101F084FA1CBDFEB50446067825
:102A90000421684601700E214170092181700121D5
:102AA000C17019492039818086710021C171601C73
:102AB000029100F0FFFF050220792D0A0006054370
:102AC000002E06D0012E0ED0022E39D0032E42D178
:102AD0003CE0286869460872020A4A72020C8A724F
:102AE000000EC87237E0601D00F0E4FF0002217A9A
:102AF000000A0906084328602DE00000C03000509D
:102B0000FFFF00008C7F0000E0400000765F332E66
:102B1000302E31302E35333400000000765F332EF6
:102B200035302E312E31303100000000A0860100FA
:102B3000200000500080004028450020E7290020A8
:102B4000288869460872000A487204E0A079617911
:102B500000020843288000220C21684601F018FA80
:102B600097E500001649896A084710B5052001F06D
:102B700059FB14480068002805D011490122403152
:102B8000097B00F08BF810BD10B520210D4801F035
:102B90004FFB0C4801F052FB0A480C3001F04EFB91
:102BA00001F052FB0849062001F054FB07490520BB
:102BB00001F050FB0649042001F04CFB10BD000061
:102BC000E0010020DC040800655C02006B2B0020A3
:102BD000A55B0200F7B586B09D48069D0090047B7A
:102BE0004035E87C16468019E8744A700C70688994
:102BF000888097480F462038039036E00398816A12
:102C00002E206043081893490A78022A02D00978D6
:102C100004291ED1904A1188491C11804288D1078D
:102C200003D08E4B1988491C1980110703D58C4A93
:102C30001188491C11808B4982790B88D21852085F
:102C40000A80894949880A0A88490B88D21852089B
:102C50000A80E97DC90705D08078400602D406982D
:102C600001F0FEFA641C6407640F3046761EF6B26B
:102C70000028C3D100980473287E00280CD0E87C7B
:102C8000002809D003993878896A2E225043081801
:102C90008078C00700D1287609B0F0BDF8B50F469E
:102CA0000546734940300089C9691646884201D1FA
:102CB000002102E00002401C81B2022206239002A1
:102CC00001F0F6F9044601463A462846FFF782FF2E
:102CD000002E02D00020A07003E02146284601F01B
:102CE000C5FA204601F0EAF9F8BD30B561490A8815
:102CF000FF2381339A4380320A800C8801221443D7
:102D00000C800C881825AC4310340C8004884C804F
:102D10000C88A404FCD5CA8044884C800C88A40488
:102D2000FCD5CA8084884C800C88A404FCD5CA8059
:102D3000C4884C800C88A404FCD5CA8004894C80CB
:102D40000C88A404FCD5CA8044894C800C88A40457
:102D5000FCD5CA8084894C800C88A404FCD5CA8028
:102D6000C4894C800C88A404FCD5CA80048A4C8099
:102D70000C88A404FCD5CA80448A4C800C88A40426
:102D8000FCD5CA80848A4C800C88A404FCD5CA80F7
:102D9000C48A4C800C88A404FCD5CA80048B4C8067
:102DA0000C88A404FCD5CA80448B4C800C88A404F5
:102DB000FCD5CA80848B4C800C88A404FCD5CA80C6
:102DC000C48B4C800C88A404FCD5CA80048C4C8035
:102DD0000C88A404FCD5CA80448C4C800C88A404C4
:102DE000FCD5CA800C889C430C80848CE4B24C8057
:102DF0000C88A404FCD5CA800C889C4380340C80C9
:102E0000194C65884D800D88AD04FCD5CA800D88AD
:102E1000801E9D430D800078488008888004FCD582
:102E2000CA800888984380300880208848800888B5
:102E30008004FCD5CA801048808A488008888004B5
:102E4000FCD5CA80088840084000088030BD0000DA
:102E50009C04080028450020304500203245002011
:102E60003445002036450020002900503845002018
:102E7000E0010020001200500023005007490968BB
:102E8000084710B5002803D00121890601F0F4F9A4
:102E9000034841680120884710BD0000A0020020BF
:102EA0000808080030B5A549A54B4A7E00200C7ED5
:102EB0009D5C0346AC4205D1521CD2B24A76032A2D
:102EC00001D301204B7630BDF8B59C4C0025264639
:102ED00020360746002812D0B07802280AD1F078B0
:102EE000012801D0052805D12069002802D001F071
:102EF000C9F92561012F48D1002000F001F9B0780F
:102F000000280AD0012816D0022841D003280BD16E
:102F1000FFF7C8FF002838D15EE0F078012804D020
:102F2000052804D000F0ECF8F8BD032000E00820EC
:102F300000F0F3F8F8BDF07801280FD00528F9D19A
:102F40007E48038CC28B818B408B01F0B1F8014627
:102F500010392161C889002806D111E000F0FEF87F
:102F60002169C889002803D0103100F0BBF8F8BDF2
:102F70000889744A904206D0724A3032904202D098
:102F80000846103025E00D8119E000F028F8F8BD62
:102F9000F078012803D00528F9D1206918E000F065
:102FA0007FF920690189012912D01F2910D0212918
:102FB0000ED0202902D1C189032909D005812069B9
:102FC000C58120690028E0D001F05CF92561DCE7CB
:102FD000103001F073F8D8E700F078F8F8BD5748E2
:102FE00010B50021203081702038C06801210368AD
:102FF0005248554A23309847042001F049F910BD42
:1030000010B5032001F04AF9022001F041F910BD8A
:1030100010B5032001F006F9484C606901F032F95F
:103020002068002805D0204601F03EF901F00AF89A
:1030300010BD00213F2001F00BF801F03BF9002802
:10304000F6D001F03DF90028F2D1082001F03EF958
:1030500004223F213D4801F03FF910BD3C48C06AC1
:10306000004710B53B49032001F0F4F83348C0682D
:1030700080688047FFF7B3FF10BD70B50646144661
:103080000D46022001F022F9681E2C490670C9681D
:10309000314A4B68611C984770BD2848C0688068F9
:1030A000004710B52548C068C0688047002801D097
:1030B000012010BD01F004F9002805D023480222A8
:1030C0003F21401C01F008F9002010BD1B480321DE
:1030D000203081702038C0680121036817481A4ADF
:1030E0001830184730B40C461449022220318A7037
:1030F0002039C968144A0B680146204630BC18477D
:1031000010B50E4900224A760876FFF7CBFEFFF78E
:10311000DDFF042001F0BCF810BD084910B5012204
:1031200020318A702039C968074A0B680146034874
:103130001A309847042001F0C9F810BDFC050800BA
:10314000E844002030400000C92E002002FC0000AE
:10315000E00100201130002001300020A048C069AB
:103160000047FEB500269F480196C17E807E0C0276
:1031700004439C4F9C483D7F211A009584423FD0D8
:1031800011DC9A48211A84423FD006DC9848201866
:1031900037D0984940180FD135E0012937D09648EB
:1031A000081809D10EE0954810293AD0302909D0E5
:1031B000402930D0D0293AD03F200190681C904E51
:1031C000C0B200908848103884425DD086481030E4
:1031D000844259D08448844256D083483030844257
:1031E00052D08148403084424ED07F497E4B7F4848
:1031F00081225031D201703384421BD1052D3AD146
:1032000042E00126DEE71F26DCE72026DAE721265A
:10321000FFF77EF9D6E700780528D3D1FFF78EF9BE
:10322000D0E700780228CDD1FFF79FF9CAE7FFF772
:1032300044FBC7E78C4202D1032D1CD124E0944209
:1032400022D09C4220D06848803084421CD06648FE
:103250009030844218D06448A030844214D0624830
:10326000B030844210D06048C03084420CD05E48F8
:10327000D030844208D03F223046009B019900F0B4
:1032800017FF1038386109E03F223046009B019952
:1032900000F00EFF1038386104813869C581FEBD29
:1032A0004F48006A004710B54E484F4C01695034F2
:1032B0000A8908461030131BA2423CD018DC4B4C44
:1032C000131BA2422ED009DC012A06D04B481F2A2C
:1032D00023D0202A01D10321017010BD464959187D
:1032E00026D010291BD04029F7D1FFF780F810BD58
:1032F000502B32D00ADC102B23D0202B27D0302BA0
:1033000028D0402BF3D1FFF7A1FB10BD602B1BD0C1
:10331000702BFAD1FFF76BFA10BD0421DCE7FEF742
:10332000EBFF10BDC9890529FBD1FFF71EF810BDC1
:10333000FFF777F810BDC9890329FBD1FFF732F9F0
:1033400010BDFFF7D5F910BDFFF7A2FA10BDFFF7CA
:10335000F2FA10BDFFF74FFB10BDFFF796FB10BD53
:103360001F49496A0847F0B51E4E002275690324BB
:1033700029462B890B310127432B13D004DC242B46
:1033800009D0422B1FD109E0442B0DD01C4D6D42BA
:103390005B1918D110E0164A524201E0134A521E3E
:1033A000042410E0114AFBE7104A6D8A521C0624DF
:1033B0008D712D0ACD7106E00A4AD37E947E1A02E1
:1033C000224304244F710E230B704C708F70CA700F
:1033D000120A0A71A41C047070690B30F0BD000061
:1033E00020020020FC050800204000001E200000F4
:1033F000FDF3FFFFE6EBFFFF0EE0FFFF2845002097
:1034000001FC0000FE494843012102E000BF00BF6B
:10341000491C8142FAD97047FA49FF2804D800288C
:1034200005D0FF20013002E0884200D9084605217E
:10343000090748800A20E5E7F8B500277C1E3E46CC
:103440000A21009700F0C8FD01228A40D1B200286D
:1034500006D0012806D0022807D003280AD107E0A9
:10346000E94C07E0E84C203404E0E74C403401E04C
:10347000E54C8034E64DE5486861AE612869042278
:1034800010432861EFF31086012080F31088204656
:1034900000F0F6F900902869400840002861002EED
:1034A0000AD0012080F310880098002802D001463D
:1034B000D648471A3846F8BD0020F3E771B583B007
:1034C0000398404300F00EFF0C460546D14AD24B0C
:1034D00000F088FDD14E0022334600F0D5FB00F00D
:1034E0009EFC0090039800F047FC009900F045FB1B
:1034F000CB4900F07FFB009028462146C94ACA4BC1
:1035000000F070FD0022334600F0BEFB00F087FCA7
:103510000190039800F0E6FEC44AC54B00F062FD3E
:103520000022C44B00F0B0FB00F079FC029001993E
:10353000009800F01AFB029900F0C6FABE4900F0AC
:10354000C3FA009000F02AFC04B070BDF8B5002565
:103550006B462E461D80B94C61602060FFF7AEFFC0
:1035600061680F1A69460888401C08802068FFF7C8
:10357000A5FFC119B248814203DB2268521E012611
:103580002260814203DC2068401C0125206028461F
:10359000304206D168460021415E7D200001814213
:1035A000E0DB68460021415E7D200001814202DBB4
:1035B0000020C043F8BD2168FF2902DCFF20013054
:1035C00004E09048814201DC2068F8BD2060F8BD2D
:1035D000F1B582B08C4D8C498B4C029E03208A4AF7
:1035E0000002203540318034330000F013FD2614F2
:1035F0001A20262C32383ED3D3444A50565C62D32C
:10360000D3D3D3686E747A80868C92989EA4AAB025
:10361000B6BCC2C8CED3D1888143FF310131D1803D
:10362000B8E011898143FF3101311181B2E0518944
:103630008143FF3101315181ACE091898143FF31F8
:1036400001319181A6E0D1898143FF310131D181DE
:10365000A0E0118A8143FF31013111829AE0518A41
:103660008143FF310131518294E0918A8143FF31DE
:10367000013191828EE0E9888143FF310131E98097
:1036800088E029898143FF310131298182E06989FC
:103690008143FF31013169817CE0A9898143FF3198
:1036A0000131A98176E0E9898143FF310131E98166
:1036B00070E0298A8143FF31013129826AE0CA889A
:1036C0008243FF320132CA8064E00A898243FF32BA
:1036D00001320A815EE04A898243FF3201324A8127
:1036E00058E08A898243FF3201328A8152E0CA89D6
:1036F0008243FF320132CA814CE00A8A8243FF32A0
:1037000001320A8246E04A8A8243FF3201324A820B
:1037100040E08A8A8243FF3201328A823AE0CA8AD2
:103720008243FF320132CA8234E00A8B8243FF3285
:1037300001320A832EE0E1888143FF310131E180CB
:1037400028E021898143FF310131218122E0618913
:103750008143FF31013161811CE0A1898143FF3147
:103760000131A18116E0E1898143FF310131E1811D
:1037700010E0218A8143FF31013121820AE0618A10
:103780008143FF310131618204E0A18A8143FF312D
:103790000131A1822B48FFF73FFE0298FFF74CFE54
:1037A00029490126F643884260DD2849254A411807
:1037B000FD327710914254D2204C6946A06000201F
:1037C000087005252D0769460878401C0870688830
:1037D000E060A168FFF7BAFE2061411C41D0FFF70D
:1037E0001BFE6888E0600298FFF726FEA0600028B4
:1037F0003CD0694609780A292ED81549401829E095
:10380000F1060000FF07000000300050FFFFFF003E
:1038100000E000E0084DF9AD2942FA3F0088C340BE
:1038200000007A44977E995A7C930640271186A619
:10383000913B0D4000002440AA21F44A4445002059
:10384000FC117A007C04000040420F0094EF85FFD9
:1038500018EE85FF2928B6D20849A0684018A1288B
:1038600009D30020FFF7D8FD3846FEBD0020FFF742
:10387000D3FD3046FEBD6888E060FEBD54EE85FF96
:103880003EB50D4D6D1E14D002880A42FAD16D1E50
:103890000FD002880A42FAD0084A13680124234351
:1038A00013606D1E05D002880A42FAD1044A1068DE
:1038B0003EBD00203EBD0000C0C62D0010E000E06F
:1038C00018E000E010B50446C1B2062000F0C1F8CF
:1038D000210A072000F0BDF800F0B0F810BD10B5C7
:1038E0000446C1B2002000F0B4F8210A012000F023
:1038F000B0F800F0A3F810BD10B50024002803D0E4
:10390000401E012181408CB2E1B2042000F0A1F8F8
:10391000210A052000F09DF800F090F810BD10B5C8
:103920000446C1B2022000F094F8210A032000F0FE
:1039300090F800F083F810BDC10710B5C90F08203A
:1039400000F087F800F07AF810BD10B500F03EF8EE
:103950000020FFF7F1FF0020FFF7E1FF0020FFF755
:10396000CBFF0020FFF7BBFF0020FFF7ABFF10BD30
:1039700010B501460B2000F06CF800F05FF810BDA8
:1039800010B50446002000F076F8012000F073F82E
:103990007D20C000604300F079F8002000F06BF853
:1039A00010BD10B50021092000F053F800F046F8D2
:1039B0000121092000F04DF800F040F80021092015
:1039C00000F047F800F03AF810BD00002E49002240
:1039D0000A8003200002C880088148818881C8814C
:1039E000088248828882284940390A80C880088134
:1039F00048818881C88108827047234908807047C0
:103A0000214940390A88000712091201000F0243B8
:103A10000A8070471C4A403A11881023C007994316
:103A2000C00E014311807047174A403A1188202385
:103A3000C0079943800E01431180704700B50020F4
:103A4000FFF7F2FF0120FFF7EFFF0020FFF7ECFF89
:103A500000BD30B505460C460020FFF7DBFF0A48E5
:103A600004802846FFF7CCFF0120FFF7D3FF00209A
:103A7000FFF7D0FF30BD00B501460A20FFF7E9FF90
:103A8000FFF7DCFF00BD0000803000500101074857
:103A9000814200D9014606480022026141618261EB
:103AA000052101610169C903FCD57047FFFFFF00D3
:103AB00000E000E0001D0321401E037812021A43BB
:103AC000491EF9D510467047F8B502464A40D40F52
:103AD00042004B0052085B089A4202D20246084656
:103AE00011464A0023D0C30D4A00DDB2120EAD1AB2
:103AF000202D35DA49020126490AF6058A19002CDB
:103B000000D0524220214F1B1146B9402A411018C3
:103B1000C20D9A4221D0002C17D0012D08DCDA0505
:103B2000801AD20F8019D207DBB200F09CF9F8BDE1
:103B3000DA05801A012340001B06C01880185A427B
:103B40008018CA0F1043490007E04908C207114313
:103B5000DA05801A80194008801800F07CF9F8BD59
:103B600061000122511A001BF7E70122D2075140E0
:103B7000AAE70122D2075040A6E7024670B54A40A4
:103B8000D30FDB0740002DD04A002AD0010E140EBF
:103B9000091900021202400A520A8418E50104467B
:103BA0005443000A120A2E045043A4194219200C4F
:103BB000C543AA18120C01257F39521CAD035219B6
:103BC0001204240400D0521C104301D44000491EAA
:103BD000C2B20C06C0092018401C4008802A02D03E
:103BE00003E0002070BD40084000002900DA0020FA
:103BF000184370BD70B502464A40D50F40004A00D8
:103C0000ED0740085208002814D0002A12D0C40D35
:103C1000D30D41020120C0055202490A520AE41A9A
:103C2000091812187D34914201D3641C00E0490048
:103C3000002C01DA002070BD0023914201D3891AC3
:103C40000343400849000028F7D100290AD09142D7
:103C500002D10121C90705E0914201D2012101E011
:103C60000121C943E005C018401900F0F4F870BD07
:103C7000420005D04200120E52428A4201DB00206F
:103C80007047C90508187047F0B50C465C4085B010
:103C9000E40FE40703944C0000266408590094469E
:103CA000490802460296224321D062460A431ED0AA
:103CB0006200570D4A000E032303550D01240246EE
:103CC0002C492405781B1B0B360B40182343264335
:103CD000614600901C46501AB44103D30098401C22
:103CE000009002E0921800985B41002803DA00205F
:103CF000014605B0F0BD00200121090507468646B2
:103D000011E064461D46141BB54106D36546521B9F
:103D1000B341744607430C43A646CD074008490803
:103D2000284392185B4105460D43EAD110461843DB
:103D300013D06046194650407140084303D1002219
:103D40000123DB0709E06046101AB34102D20122C9
:103D5000002302E00122D24353100098744601056B
:103D6000381C6141029C039D0019694100F0C0FAB2
:103D7000BFE70000FD030000C217C10F504010B59F
:103D80004018CA079623002100F06DF810BD10B549
:103D900000229623114600F066F810BDC20F4100C4
:103DA00040020123400ADB05D207090EC0187F2913
:103DB00001DA00207047962903DC9623591AC8407F
:103DC00001E096398840002AF4D040427047410013
:103DD00040020122400AD205090E80187F2901DA2B
:103DE00000207047962903DC9622511AC84070477C
:103DF000963988407047C20FD207400040080BD068
:103E0000C10D0723DB01C91840020905400A11430F
:103E1000C208400711437047002001467047CB0F8E
:103E2000DB07490010B5490802460A4307D00A0DCE
:103E300007240903E401090B121B002A01DC0020FE
:103E400010BDC900440F0C43C100E018D205801812
:103E500000F001F810BD002904DA401C490001D12E
:103E600040084000704770B40024050C05D11024B0
:103E7000000402D1002922D01124050E01D10834FA
:103E80000002050F01D1241D0001850F01D1A41CE2
:103E90008000002801DB641C4000002908D0202598
:103EA0002E1B0D46F540A14000D0012129430843B7
:103EB0001B1B0106DB1D000A002B02DA002070BC70
:103EC0007047DB05181880180029F8DA401C4900F3
:103ED000F5D170BC4008400070470000064C012539
:103EE000064E05E02046E36807C82B439847103488
:103EF000B442F7D3FCF7B0FAEC4400200C450020A4
:103F000003B40148019001BD9D1B020003B40148A8
:103F1000019001BDDF29030003B40148019001BDF8
:103F20006F39030003B40148019001BD032B030066
:103F300003B40148019001BD218D020003B4014882
:103F4000019001BDF92B030003B40148019001BDAC
:103F5000BD1E030003B40148019001BD012C030004
:103F600003B40148019001BD7F65020003B401481C
:103F7000019001BD1B30030003B40148019001BD55
:103F80006B30030003B40148019001BD8F1F030093
:103F900003B40148019001BD7F7E020003B40148D3
:103FA000019001BDAB8C020003B40148019001BD3A
:103FB000DF89020003B40148019001BD598C020061
:103FC00003B40148019001BD7B1B020003B401480A
:103FD000019001BDA17D020003B40148019001BD23
:103FE0000739030003B40148019001BDF53903000E
:103FF00003B40148019001BD672D030003B40148DB
:10400000019001BDB18C020003B40148019001BDD3
:10401000AD24030003B40148019001BD6F3C0300CF
:1040200003B40148019001BD437A020003B4014882
:10403000019001BD151D020003B40148019001BDAE
:10404000431D020003B40148019001BD238E02000C
:1040500003B40148019001BD2924030003B40148C1
:10406000019001BD3DA4020003B40148019001BDCF
:104070000FB0020003B40148019001BDA3A20200E9
:1040800003B40148019001BDFBA2020003B4014842
:10409000019001BD8139030003B40148019001BDC5
:1040A00099A2020003B40148019001BD6B96020081
:1040B00003B40148019001BD7D21030003B4014810
:1040C000019001BDAD21030003B40148019001BD81
:1040D000EF61020003B40148019001BD535002009A
:1040E00003B40148019001BD2D50020003B4014802
:1040F000019001BD31D2020003B40148019001BD1D
:10410000F13B030003B40148019001BDD93903001C
:1041100003B40148019001BDE727030003B401483F
:10412000019001BD9D2A030003B40148019001BD27
:10413000132D030003B40148019001BDED1B0200E3
:1041400003B40148019001BDFB2A030003B40148F8
:10415000019001BD452F030003B40148019001BD4A
:104160006F62020003B40148019001BD5F6202006A
:1041700003B40148019001BD198A020003B401484B
:10418000019001BDE78C020003B40148019001BD1C
:104190004F62020003B40148019001BD2D1E0300CF
:1041A00003B40148019001BD2D27030003B4014869
:1041B000019001BDF18D020003B40148019001BDE1
:1041C0001B65020003B40148019001BD452A0300AC
:1041D00003B40148019001BD457E020003B40148CB
:1041E000019001BD356C020003B40148019001BD8E
:1041F000676B020003B40148019001BD895B0200B6
:1042000003B40148019001BD8139030003B40148A2
:10421000019001BD8F20030003B40148019001BD4E
:10422000CD1F030003B40148019001BD911E03009E
:1042300003B40148019001BDB339030003B4014840
:10424000019001BD391D020003B40148019001BD78
:10425000A962020003B40148019001BD511E030090
:1042600003B40148019001BD835D020003B401481D
:10427000019001BD0D4F020003B40148019001BD42
:104280009F5E020003B40148019001BD01220300BA
:1042900003B40148019001BD252D030003B401487A
:1042A000019001BD651E030003B40148019001BDEA
:1042B000D31D020003B40148019001BD772D030016
:1042C00003B40148019001BD7F2D030003B40148F0
:1042D000019001BDEF2C030003B40148019001BD22
:1042E0001F26030003B40148019001BDC53A030035
:1042F00003B40148019001BD313B0300F8B5040C43
:104300008BB2264682B25E430D0C1046370C5843E2
:10431000360480190021794116466E43370C360465
:104320008019794126466E438919F8BD02E008C814
:10433000121F08C1002AFAD170477047002001E01F
:1043400001C1121F002AFBD170470101000A042895
:104350000A040203AA0055032A00A001FFFF2C0152
:104360000A0000007D7202000B000000937702003B
:104370000C000000F37602000D00000099720200AC
:104380000E000000CB7202000F0000001B7702003D
:1043900010000000F57202001200000037730200E6
:1043A000110000007D73020013000000A7730200DB
:1043B00014000000D1730200150000000376020013
:1043C00016000000357602001B0000001774020082
:1043D0004D0000008F7602001700000049770200B0
:1043E0001800000033750200190000007775020004
:1043F0001A000000BD7502001C000000B577020025
:104400001D000000D57702001E0000006B7702003F
:104410001F0000009374020020000000E3740200FB
:10442000210000001B7802004900000059780200BA
:1044300000080000210F0020010000006578020044
:10444000090000007D78020005000000A778020046
:1044500006000000D1780200020000003579020059
:1044600007000000F9780200000000002379020034
:10447000030000009579020004000000B7790200F3
:1044800008000000217A02004C000000A97B020015
:104490006043002026000000911000201D11002024
:1044A000C441030090440020AC0508000600010050
:1044B00000000000D844002020060800020001008F
:1044C000FFFF0000BF0F002002FC0000958F0200DC
:1044D00003FC0000A18F0200C04400200300000084
:1044E000FF003F00FF03FF01525721005845002005
:1044F00020900020B40000003C4300200809080080
:10450000D0280800300700003C43002000000000D5
:104510006400000000000000800C000000000000AB
:10452000000000000000000000000000000000008B
:10453000000000000000000000000000000000007B
:10454000000000000000000000000000000000006B
:08455000000000000000000063
:040000052000045182
:00000001FF
