:020000042000DA
:1000000000980020A1040020A9040020C1040020C1
:1000100000000000000000000000000000000000E0
:10002000000000000000000000000000D9040020D3
:100030000000000000000000F1040020F304002094
:100040006B270020492800200D31030037280020AD
:10005000D32700208D3103005B2800206D2800206D
:10006000F5040020F5040020CF280020AD31030066
:1000700057810200F5040020F5040020F50400205B
:10008000F5040020F5040020F50400208320002062
:10009000872000208B2000208F200020932000202C
:020000042000DA
:100160003200000087050020AB180020692D002018
:10017000000000000000000063800200BD8002005B
:100180002D0C0020FB800200198102003581020045
:100190005D810200DD2600206D050020190C002085
:1001A000230C002000000000000000003F000000C1
:1001B000F48B002000040000740B080048010000CC
:1001C0006807080000040000C80C080020050000B3
:1001D000000000002000000048000000580000005F
:1001E0006800000004010000160100002801000062
:1001F0002E010000202A00008E2E000001000000C9
:100200008813000035190020E9600200FD93020008
:100210002713002019280300A5740200652400207C
:1002200003000000D5200200712D00200400000012
:10023000D74902000F490200831D020063910200AA
:10024000B7910200BF910200078202007182020092
:10025000083F0020AD830200938402004185020024
:1002600015860200378602005F860200758602004E
:10027000F9870200258902005D8A0200D38C020002
:10028000098D02000F900200438D0200278E0200AC
:10029000F98E0200478F02009F0B0020D58F0200CD
:1002A00049510200775102002F5202001000000055
:1002B00020030000803E000000000000000000005D
:020000042000DA
:1002C000504600030003983A6400F401B80B000C98
:1002D000B80B120030003000CD009A01120024004B
:1002E00030006400B0001800280012001200D0078F
:1002F0000000FFFF00000000000000000000000000
:100300001F000002444131343538302D30310000B7
:1003100000000000000000000000000000000000DD
:0403200000000000D9
:020000042000DA
:10034000FFFF010000C201000000000000000000EB
:100350000000F4010100011B0A051AFFD20002157A
:10036000585CDE931B0142CC9A1325009BEDC65EC0
:1003700000010002C5000000000009FF00605257A4
:100380002D424C450000000000000000000000006D
:10039000000000000000000000004D54424C4532B7
:1003A000000000000000000000000000000000004D
:1003B000000000000000000000000000000000003D
:1003C000000000000000000000000000000000002D
:1003D0000000000000000000010000CAEA80D00711
:0403E000064064323D
:020000042000DA
:100440000348854603F088FA00480047C7200200A9
:10045000009800200E4906200880FF200D49013039
:1004600008600D4988683E2290432E308860002243
:10047000052000070280018A0F231B021943018215
:1004800001210648C90404C1401EFCD562B670476C
:100490000034005080E100E000330050FF0B00000A
:1004A000154880471548004704207146084203D08C
:1004B000EFF3098012490847EFF308801049084715
:1004C00004207146084203D0EFF309800D49084724
:1004D000EFF308800B49084704207146084203D017
:1004E000EFF3098008490847EFF3088006490847F9
:1004F000FEE7FEE7FEE7000055040020410400206F
:10050000290900200D0500208B0E0020052212076E
:10051000518A802319435182124903680B60436852
:100520004B6083688B60C368CB6003690B61436970
:100530004B6183698B61C369CB6108620A48836A36
:100540004B62C36A8B62036BCB62C36B0B63436BFF
:100550004B63806B8863908A800601D500BE70472C
:10056000FEE700000018080000ED00E010B5994912
:100570000020086000F00EFB01208007016B49009D
:100580004908016310BD1CB59349012008709349C7
:100590000820088003F0F2F901F072FA01F07EFF02
:1005A00000F05CFA8E48017801708E480178017085
:1005B000012003F0E9F901F0DBF800F07BFA0420F8
:1005C00000F000F9072000F0FDF80A2000F0FAF82A
:1005D000062000F0F7F80B2000F0F4F8012000F0FE
:1005E000F1F8022000F0EEF8002000F0EBF87E4871
:1005F000006803F0CFF900F0F4FB00F026FC01F0F6
:1006000078F801208007016882151143016000F02D
:1006100030FB00F001F902F0B3FCFFF7A7FF002563
:1006200005242407E58271484188E0229143A031E6
:100630004180012003F0B4F903F02DF8042620894D
:10064000000619D501208007006B000414D403F0C4
:10065000ADF9C00710D1042003F0AEF9074603F04E
:10066000B1F9002F08D0042101A8019503F0B0F9D9
:10067000002801D000F0A1FA02F031FF5C4F387C75
:10068000002802D002F00BFF3D7403F0D6F80028DA
:10069000D5D172B601F028FF69460870042806D04B
:1006A00002280AD0032808D001287DD088E05148CC
:1006B000007801280CD003200870208A3043208263
:1006C0004D48C0690128087813D9032802D049E0B1
:1006D0000220F1E703F082F9002843D003F084F907
:1006E00000283FD0032003F085F900283AD00220EB
:1006F00006E0032836D103F07DF9002832D001202E
:100700003E4908703E48016931430161618A2022F7
:1007100091436182218A02221143218269460A782B
:10072000618A022A21D0314361827F212388890195
:1007300080273B43238000235B1CDBB20A2BFBD3C7
:10074000638A10273B4363822E4B491E59612188DF
:100750008023994321802C49022A0D700CD0032A52
:100760000AD027E002206946CBE731436182618AE3
:10077000102399436182EEE71C494A88FF23013325
:100780009A434A806288214B1A804A8801231A437F
:100790004A8001950199491C01911429FADB61896C
:1007A00089088900491C00E009E0618161894906E6
:1007B000FCD5658030BF0169B143016100E030BF05
:1007C00062B63CE7C106C90E0120884010490860A6
:1007D000704700008C030800248400200033005080
:1007E00000000800202A080004900020200000508B
:1007F000DE91002054020800E0010020C406080039
:1008000000ED00E0008000406A8400206C8400203D
:1008100080E200E0704700003E480178002902D0E5
:100820008021417070473C49002008703B49C870E6
:10083000704738480178002902D081214170704703
:100840003549012008703549C87070473148017832
:10085000002902D08221417070472F490220087080
:100860002E490120C87070472A488178002904D099
:10087000491E0906090E817017D142780021002A0D
:1008800004D09207920F0270417004E00278002AAF
:1008900001D0521E02701206120E017005D0012AFC
:1008A00002D0022A01D1D1E7C3E7704710B5194C35
:1008B000A078401CA0702078002805D103F0A0F893
:1008C000421CFFF7A9FF227010BD12490120C87019
:1008D000704710490020C87070470E48C0787047B4
:1008E0000020EFF31081012282F310880522120705
:1008F0001289120605D40A48028901231A4302818B
:100900001846002900D0012181F31088704705485E
:10091000007870472584002054020800C6060800AD
:10092000003300506884002005221207118A042336
:1009300019431182118A022319431182118940231C
:1009400019431181184B01211960184B0821198096
:10095000518A802319435182154903680B6143680A
:100960004B6183688B61C368CB6103690B62436928
:100970004B6283698B62C369CB6208630D48836AEB
:100980004B63C36A8B63036BCB63C36B0849403112
:100990000B60436B4B60806B8860908A800601D54A
:1009A00000BE7047FEE7000080E200E00033005028
:1009B0004018080000ED00E070B5394800220169D8
:1009C000D243002901D0114600E00121CB170C0FC2
:1009D0001B0123430C01016132490D684E682C4311
:1009E00033430C604B604369002B01D0144600E098
:1009F0000124E317E50E5B012B4344610D6864019C
:100A00004E682C4333430C604B604368002B00D18D
:100A100001224260D01792180C6840414B68224373
:100A200018430A60486070BD38B5002403252D02C4
:100A300002232A4604212046009401F0ADF800224A
:100A4000012305211046009401F0A6F800232A4650
:100A500001211846009401F09FF838BD10B5052417
:100A60002407208A022188432082A08A0007FCD51F
:100A70000D484188FF22013211434180A088802126
:100A80000843A0800321092002F0C0FF00F009FA0A
:100A9000FFF7CAFF608A20210843608210BD000072
:100AA000088000200080002020000050A149002084
:100AB0004860704770B505200007018930229143D6
:100AC00001810189802211430181018989088900FE
:100AD000491C0181018908231943018196490C8829
:100AE00014430C80448A9C43448205894024254356
:100AF0000581058A0426B5430582858AAD07FCD5A4
:100B00008C4E002575600D88012635430D804D897A
:100B1000AE058A4D0E8801D52E4300E0AE430E800F
:100B20000D887826B54328350D800D880626354377
:100B30000D80458A1D4345820B8893430B800289B3
:100B4000A24302814889800503D57B490520603195
:100B500088800120800701688215914301607848F0
:100B600001683F22520291434214891801600168D2
:100B700002031143016070BD0321724809028181A3
:100B8000082242800021491C9629FCD382807047AC
:100B90007047704710B56C4802F03EFF10BD70B54D
:100BA000654C6088C006050F02F03CFF61881E227C
:100BB00091436A001143618070BD10B56349012003
:100BC000C863C86B0028FCD101208007C169604858
:100BD0000268914201D20022026019238A1ADB01C5
:100BE0009A4212D3016002F023FF5A4A11888842C8
:100BF00001D9411A00E0091A89B2182905D31080D9
:100C0000012002F01BFF02F01FFF10BD08B5009885
:100C100008BD08B5009808BD08B502F01BFF00909C
:100C200008BD08B502F01CFF009008BD08B54A4990
:100C300001204A695206D20F13D04A699206D20F98
:100C40000FD000220A610092FF225F32009B5B1CE2
:100C500000939342FAD34969C907C90F02D002F041
:100C600005FF002008BD40183721C00009014018C9
:100C700070471FB5684601F074FA009802F084FED0
:100C80001FBD10B5354A0020117800290DD02F491D
:100C90000120C863C86B0028FCD101208007C0690F
:100CA0002F490968884201D2012010BD0020107030
:100CB00002F0A6FE022803D002F0A2FE01280BD10A
:100CC00028490820088005200007818A8906FCD46D
:100CD000418A802291434182002010BD002070474C
:100CE00008B515494A8801231A434A80002100911A
:100CF000491C00911429FBDB052109074A89920848
:100D00009200521C4A814A895206FCD54B89042222
:100D100013434B814880488990434881888A000664
:100D2000FCD5488980088000488148890006FCD5A8
:100D300008BD00002C84002020000050001000009E
:100D40000002004020300050E2040000C0000040DB
:100D50007C0408007804080000100050248400205F
:100D60004846002000330050FFB581B01F460E46B4
:100D70004D780C78002002F07FFE042824D0002853
:100D80001DD121E05F48816A2E20604309188888C0
:100D90000207120F130002F075FE070505050F0587
:100DA0000F050F008204920E062A05D27278012ADE
:100DB00012D0072210438880641C6407640F284601
:100DC0006D1EEDB20028DDD13B463146039A0198F5
:100DD00002F05EFE05B0F0BD204602F05FFE00208E
:100DE000F8E770B548480378021D0021474D07E039
:100DF000CC00165D002E01D12418A560491CC9B293
:100E00009942F5D370BD70B505460C46103C3F20A5
:100E100002F032FE00280FD03D488068322806D903
:100E20003C498D4201D03C2801D9002070BD2146AB
:100E3000374802F039FE06E0204602F03BFE012171
:100E40003F2002F03DFE012070BD10B52E490B7809
:100E50000A1D002005E0C400145D3F2C04D0401C96
:100E6000C0B29842F7D310BD284AC00010324018D3
:100E7000826010BD028908892749101A80B2884211
:100E800001D9012070470020704781692039897F8E
:100E9000082905D21D4A89002032515881617047C6
:100EA000FEE71F481D4901611E4941611E498161DC
:100EB0001E49C1611E4901621E4941621E4981628B
:100EC0001E49C1621E4901631E4941631E49816377
:100ED0001E49C1631C4912485C31403001601C4905
:100EE00041601C4981601C49C16001201B49C0064A
:100EF00008601B49CA691202120ACA61174980397F
:100F000008607047180308000406080058400020D5
:100F1000800408001034000030750000942703009E
:100F20000084004062B600DF28A30200704701DFA2
:100F30001CCA0200F8BD02DF40CB0200F5E703DF68
:100F400084D4020004DF89B0BC330200F8BD05DFA1
:100F5000F8BD06DFEC0C030070BD07DF80E100E0A8
:100F600000ED00E070B516460D46104602F084FD17
:100F7000002869D0340A304602F07EFD012812D0E4
:100F8000A87A1E2811D029460A310E2845D019DC2E
:100F9000801E030002F076FD0B255829582D58318C
:100FA0005839583D5800022070BD3146274802F09C
:100FB0008DFD0021204602F08FFD0221304602F017
:100FC0007FFD41E018283CD006DC102819D01228FB
:100FD0002BD0162838D130E0522822D0D22833D155
:100FE00027E0204602F07EFD2EE0204602F080FD44
:100FF0002AE0204602F082FD26E0204602F084FD31
:1010000022E0204602F086FD1EE0204602F088FD28
:101010001AE0204602F08AFD16E0204602F08CFD20
:1010200012E0204602F08EFD0EE0204602F090FD18
:101030000AE0204602F092FD06E0204602F094FD10
:1010400002E0204602F096FD002070BD012800005D
:10105000F8B50D46064681002B48EA884458521CD4
:1010600020686B89018F294F51430091014640311F
:101070004A89C989511A8AB2991A89B2B94214D2D5
:101080009A4212D0294602F07BFD2D892049009812
:1010900002F07CFD2818801C4034E0823002401CA5
:1010A00080B2042102F00CFDF8BD2821304602F088
:1010B00073FDF8BDF8B50546870013480C46C059C6
:1010C000C9880068114E024640325389D2899A1A63
:1010D00092B28B1A9BB2B34211D20B4E8A420ED0FF
:1010E00002F060FDF05905225F30611C02F060FDE6
:1010F0002802401C80B2052102F0E2FCF8BD282144
:10110000284602F049FDF8BD4C030800FF7F0000AF
:101110001027000070B50446007800250D2801D086
:101120000A2200E002225A494B7A002B06D00D28F1
:1011300004D0637C032B01D0432551E0097A8A4314
:1011400039D10D2809D00E2802D00F2803D134E060
:10115000607C032804D3402542E0607C0328FAD851
:10116000A07C0428F7D20A2908D0607C012822D06C
:10117000022820D06078032809D811E002F01EFD73
:10118000012806D16078032803D0002801D0492522
:1011900026E002F013FD002802D160780228F6D87C
:1011A0003020035D22462046E17C3132143000F0CD
:1011B00019F8054614E0422512E002F0FFFC012870
:1011C00007D16078052804D1A01D02F0FDFC00289D
:1011D000DDD002F0F3FC002802D160780228D6D8D6
:1011E000284670BDFFB5002086B001216A46117007
:1011F000044605910021002C06D0089D099A1F2362
:101200009A4234D9402032E01C23069D079AF7E722
:101210006B185E78330002F035FC1D26101010109C
:1012200010101010102626262626262626262626CC
:1012300026261010101010102600059B03E06F46A4
:10124000FF5CB74204D05B1E5BB2002BF7DA03E011
:10125000002B01DB4A2006E0059B6F46FE54059BF0
:101260005B1CDBB205936B5C491C5918C9B29142F7
:1012700001D20028CCD0914202D04A200AB0F0BD61
:10128000641CE4B2022CF9D20028B3D0F6E70000C7
:101290009805080070B5EFF31085012080F31088E1
:1012A000264802F097FC0446002D1DD0012080F353
:1012B0001088002C23D020462038C08B204988423B
:1012C0001DD16189208902F08BFC05000ED02146DA
:1012D0001031A38962892089A847002806D00128F7
:1012E0000DD002280BD105E00020E0E7204602F0F7
:1012F0007DFC04E0114821460C3002F0D5FBEFF3F1
:101300001084012080F310880C480068002802D166
:10131000012002F071FC002C03D0012080F3108822
:1013200070BD0020FAE710B5BC21064802F06AFC47
:101330000549012002F06CFC10BD0000A805080062
:10134000388300000406080095120020F3B581B030
:1013500001980C460102CA1D0E310223344802F0E6
:101360005DFC047001990546022732488E00002C6E
:1013700006D0042C16D0062C10D0072C3FD108E044
:10138000815905224968897C114069708059C77369
:1013900035E0084602F048FC687030E080590F21C3
:1013A000C1732CE0044680594068417C012902D178
:1013B000007E01280FD0019802F03CFC012100289A
:1013C000A0590BD04268D07D00281CD001281AD02B
:1013D00004280DD00FE0002068700DE04068C27D49
:1013E000022A01D0042A06D1007C02280BD102E097
:1013F000107C022807D06F70A1590320C8732846BB
:1014000002F01EFCFEBD6970F6E701460A78012075
:10141000042A01D9002070474A78002A01D0012A05
:10142000F8D10A79082AF5D849790829F2D87047FD
:10143000021C000028050800FFB589B00D460020F9
:101440006946059008720B98000A009002F0F2FBC2
:1014500007460B9802F010FB00287DD00B982978E6
:10146000000A8400784E012963D0042904D006299B
:1014700048D0072968D125E03059C17B032901D024
:10148000042961D1697800291AD040681022A91C6A
:1014900002F08EFB002F06D03159C87B032807D0FD
:1014A000042808D050E03059C07B032803D04BE01B
:1014B0000B20C87348E00521009802F0C7FB43E009
:1014C0000120B6E03059C07B0E283DD1009802F0D3
:1014D000ABFB002103E02A18401C9170C0B2102819
:1014E000F9D3688A69460883294606A80822143178
:1014F000023002F05DFB06ABAA1C3946009802F0F0
:10150000ABFB21E03059C07B0F281DD1AA1C0A215A
:10151000009802F0A7FB002F04D03946009802F093
:10152000A7FB11E000231A463946009802F0A6FBFB
:101530000AE0012F08D10B9802F09EFA01281CD076
:10154000002801D0022005906846007A002811D0BA
:1015500002AA0521009800E00CE002F083FB684637
:10156000027A6020024368460272012339460098DD
:1015700002F084FB05980DB0F0BD3059C07B022805
:10158000E2D16878002851D002210B9802F098FA35
:10159000305907224068A91C173002F009FBE8788F
:1015A000002804D130594068407C01283AD0009886
:1015B00002F06AFB002837D0297A009802F06AFB13
:1015C000002833D0009802F06BFB0121009802F054
:1015D0006DFB00282CD030594068417E00292BD06B
:1015E000042929D0C17E027D1140C176305940685E
:1015F000017F427D114001776846007A0028A7D11B
:101600003059022142680098173202F02BFB305902
:1016100041684031897B002913D004210098FFF7ED
:1016200095FE91E7022004E0062002E0082000E099
:101630000320694608728BE70021C1763059406863
:10164000D9E70B21C1737FE72805080010B50C46C8
:1016500002F032FB21888A002F4989580968002945
:1016600002D02E4BC968995010BD10B5144602F037
:1016700029FB210A8A00284989580968002902D0D3
:10168000264BC968995010BDFFB50F461546110A83
:10169000214A8800125881B012681E46002A01D0E3
:1016A000D46803E01D4A002314581350002C18D0AE
:1016B000201F42881A4B9A4213D10088602810D10B
:1016C0002046403002898A420BD18088002808D009
:1016D000A068002802D0204602F0FAFA204602F064
:1016E000FDFA33462A463946019802F0FDFA05B064
:1016F000F0BD70B50B480378021D00210A4D07E0CC
:10170000CC00165D012E01D12418A560491CC9B278
:101710009942F5D370BD00004C03080040840020BE
:101720003883000004060800B04200200F4A5188A8
:1017300007235B0299434002014351807047052013
:1017400000070188302211430180018803221143E0
:1017500001807047052000070188302291430180F5
:1017600001888908890001807047000080000050CE
:1017700030B5974A9749D005048880231C430480DC
:10178000954C65892D0701D4521EFAD2934C012243
:101790002260934C0A882280924A498811800188ED
:1017A0009943018030BD00207047704770477047F3
:1017B0000020704701218907086B07221043086346
:1017C0007047704730B589498748086088494C2080
:1017D0000880874C874B203C238288498648488074
:1017E00088488749018086491931418022214181F9
:1017F000812189000182844941828449018382498F
:10180000113141837F4A82492032918041228149AE
:1018100012018A80804ACA807F4D1035CD810A82AC
:101820004A82921C8A826A1FCA82FF2246320A8337
:101830007A4A4A837A4A592111807949794D20316F
:101840000D8043254D80784D5582D5228A80FF2218
:10185000D3320A81754A4A81754A8A81764A754926
:1018600011806349754A60394A80CA8810252A4325
:10187000CA806C4A0A3A0A815D4D714A403D6A80CD
:10188000638208224A815749654A0988403A118291
:1018900053496C4A098811806B490978002901D0A5
:1018A0003021018330BD4008704700B58BB0674AD6
:1018B0004262674A8262674A4261674AC262674A15
:1018C0000260674A0262674A4260674AC261474AE9
:1018D00045480021106045484038026B03129A4386
:1018E0000263426B1F231B049A4303231B04D21879
:1018F00042635E480268C3129A430260026803139F
:101900009A43026068464154491CC9B22829FAD357
:1019100001462822564802F04BF9FFF753FF02F028
:1019200087F854490880002002F088F802F08CF80B
:101930000BB000BD10B52D4A0F212B4809021060D5
:101940002A484038426B1F231B049A4303231B047D
:10195000D218426300060268D208D2000260052055
:101960000007028992089200521C02810289082312
:101970001A430281028A0A43028217484189890573
:1019800004D501887822914308310180FFF71AFFBE
:101990003948006B0078002804D038480088144982
:1019A0006039C880012001F0FBFF10BD2648007897
:1019B000704725490120087012493020088370477C
:1019C0002149002008700F49104808837047000023
:1019D000A0860100087F0400200000500080004025
:1019E000560208004A0308004C05540780000040D6
:1019F000602C00507F7F0000AC29000000220050C6
:101A000009090000002400502204000030D000002A
:101A1000EE110000002500502E02000044200000BE
:101A2000402800500D95000002420000E4DC000058
:101A30001092000053780000002A00508B10000024
:101A40009DD500000026005058840020A7170020D4
:101A5000AB170020B1170020B5170020AD170020EC
:101A6000C3170020AF170020A71800200002004075
:101A7000200008007804080020020020520408001A
:101A8000FEB50020FE4E0346282200214243921953
:101A90008C00491C13510A29FADB401C0428F3DB93
:101AA000FEF78AFFF64800220838026042601546B9
:101AB0000024F4486900475A0120A04080B2074240
:101AC0001CD0282068438019A1004058411C19D01F
:101AD000002810D0C117224602F00CF92A0102F0AA
:101AE00009F9E74B083B1A685B681043E44A19435D
:101AF000083A10605160641C0A2CDDDB6D1C042D5B
:101B0000D6DBFEBD0095019400BEE3E7F8B51646AE
:101B100004460D460A461F460120002102F0EAF85D
:101B2000220102F0E7F8D64B083B1A685B681040C8
:101B30001940084300D100BE032C00D10424D2492F
:101B400060014018690008183E43C680F8BDCE4ABF
:101B50004001801801228A408280704770B5044697
:101B60000D460A460120002102F0C4F8220102F0CD
:101B7000C1F8C34A083A1368526818401140084334
:101B800000D100BE032C00D10424BF4960014018DD
:101B90000121A940418070BDF8B5074606981C4652
:101BA000002815460E46384602D0FFF7D7FF01E061
:101BB000FFF7CDFF23462A4631463846FFF7A6FFFA
:101BC000F8BD70B5154604460E460A4601200021B0
:101BD00002F090F8220102F08DF8A94B083B1A6838
:101BE0005B6810401940084300D100BE002C07D0AC
:101BF000601EA549400070314018012C02D002E05F
:101C00000020F6E7083601880122B2409143B54032
:101C10000D43058070BD032800D104209A4A40017D
:101C20008018008801228A40104000D001207047AF
:101C3000FFB514460D4606460A4681B00120002134
:101C400002F058F8320102F055F88D4B083B1A6843
:101C50005B6810401940084300D100BE8BA00068AB
:101C600000908B48838920461338FF22013282403E
:101C70000B999343002901D0012700E00027D107E9
:101C800001D0002138E0910701D5012134E051074E
:101C900001D5022130E0110701D503212CE0D10646
:101CA00001D5042128E0910601D5052124E0510643
:101CB00001D5062120E0110601D507211CE0D10540
:101CC00001D5082118E0910501D5092114E051053D
:101CD00001D50A2110E0110501D50B210CE0D1043A
:101CE00001D50C2108E0910401D50D2104E0510437
:101CF00001D50E2100E00F218F4065493B438B81C8
:101D00008B890B9F9B099B013B438B810B8A9343E0
:101D1000D70701D0002238E0970701D5012234E02F
:101D2000570701D5022230E0170701D503222CE026
:101D3000D70601D5042228E0970601D5052224E024
:101D4000570601D5062220E0170601D507221CE020
:101D5000D70501D5082218E0970501D5092214E01E
:101D6000570501D50A2210E0170501D50B220CE01A
:101D7000D70401D50C2208E0970401D50D2204E018
:101D8000520401D50E2200E00F220A9F97403B43E8
:101D90000B820B8A02460127384690408343C207D4
:101DA00001D0002238E0820701D5012234E0420749
:101DB00001D5022230E0020701D503222CE0C20641
:101DC00001D5042228E0820601D5052224E042063E
:101DD00001D5062220E0020601D507221CE0C2053B
:101DE00001D5082218E0820501D5092214E0420538
:101DF00001D50A2210E0020501D50B220CE0C20435
:101E000001D50C2208E0820401D50D2204E0400433
:101E100001D50E2200E00F220498904003430B826C
:101E20001B48610040380818418B6A468909925D59
:101E30008901521911434183A007C20EFF2191402D
:101E400080209040002C0BDA2207120F083A9308EA
:101E5000104A9B009B18DA698A430243DA6107E063
:101E6000A3080D4A9B009B181A688A4302431A6014
:101E7000E006C00E87400948076005B0F0BD0000CD
:101E800008800020C04200200030005001090F19D6
:101E90000014005000ED00E000E400E000E100E08C
:101EA0007D490A8A1338012181400A40C80701D0C0
:101EB000002038E0880701D5012034E0480701D52B
:101EC000022030E0080701D503202CE0C80601D528
:101ED000042028E0880601D5052024E0480601D525
:101EE000062020E0080601D507201CE0C80501D522
:101EF000082018E0880501D5092014E0480501D51F
:101F00000A2010E0080501D50B200CE0C80401D51B
:101F10000C2008E0880401D50D2004E0480401D518
:101F20000E2000E00F20C240D0B2704710B55A4CCE
:101F3000238A1338012282409343D00701D0002026
:101F400038E0900701D5012034E0500701D5022088
:101F500030E0100701D503202CE0D00601D5042085
:101F600028E0900601D5052024E0500601D5062082
:101F700020E0100601D507201CE0D00501D508207F
:101F800018E0900501D5092014E0500501D50A207C
:101F900010E0100501D50B200CE0D00401D50C2079
:101FA00008E0900401D50D2004E0500401D50E2076
:101FB00000E00F2081400B43238210BD10B5364C4A
:101FC000E38901221338114681408B43C80701D0B1
:101FD000002038E0880701D5012034E0480701D50A
:101FE000022030E0080701D503202CE0C80601D507
:101FF000042028E0880601D5052024E0480601D504
:10200000062020E0080601D507201CE0C80501D500
:10201000082018E0880501D5092014E0480501D5FD
:102020000A2010E0080501D50B200CE0C80401D5FA
:102030000C2008E0880401D50D2004E0480401D5F7
:102040000E2000E00F2082401343E38110BD134AAD
:102050008000801880384163704710B50446FFF750
:10206000ADFF0E49A00040188038406B002801D019
:10207000804710BDE106C90E01208840084908606C
:1020800010BD1320E9E71420E7E71520E5E7162047
:10209000E3E71720E1E7000000140050A8800020CB
:1020A00080E200E008B589210520000701810121B7
:1020B000614A49031180018880221143018001880F
:1020C0008908890001805D48018A0222114301824A
:1020D000FFF778FB01F014FE01F018FE00206946BE
:1020E00001E00888401C088008889128F9D308BDC1
:1020F00008B55349002008804880534A514BD3808B
:10210000FF23D2331381C880C32151804F4A082155
:1021100011806946088003E06A461188491C1180D5
:10212000694609889129F7D36946088003E06A4621
:102130001188491C1180694609889129F7D369469D
:1021400001E00888401C088008889128F9D308BD60
:102150003F4A5080918001201080D088C007FCD178
:102160007047F1B5FFB0FFB094B011AC33480494A0
:10217000008AA41C1090FFF795FF314801880F9149
:1021800041880E913049CA880D920A890C92C28802
:102190000B92408B0A902F484088099048888446CB
:1021A000FFF7A6FF00252B46FF2111A8FFF7D0FF60
:1021B00000210A460846049E275C365C7E40F607EE
:1021C000F60F8E401643491CC9B2F2B2082906D157
:1021D000FFA9C96C4A556D1C0021ADB20A461030EA
:1021E000FF2680B2B600B042E5D95B1C9BB2022B41
:1021F000DAD3124910980882144900200880104848
:102200000F9901800E9941800F490D9ACA800C9A4E
:102210000A810B9AC2800A9A42830E4A099850801A
:102220006046488005200007018880229143018094
:102230007FB07FB015B0F0BD00020040E03000502C
:1022400000240050808000006028005020200050B2
:1022500000350050002600500AE000BF00BF00BF5C
:1022600000BF00BF00BF00BF00BF00BF00BF00BF76
:10227000401EF2D27047F8B50025784F2C46012653
:10228000002303221202012118460096FFF784FC66
:102290000320FFF7E1FF01210020FFF758FC002396
:1022A000FF220132012118460096FFF775FC052038
:1022B000FFF7D2FF01210020FFF7ADFC002801D07D
:1022C000012200E000223C20FFF7C6FFBA70A240C6
:1022D0002A43641CE4B2D5B2082CD1D32846F8BDF9
:1022E00038B5012400230322120221461846009427
:1022F000FFF752FC0320FFF7AFFF01210020FFF79B
:1023000026FC4B20C000FFF7A7FF0023220201217B
:1023100018460094FFF740FC0F20FFF79DFF38BDE3
:1023200038B50120002402020146009023462046D1
:10233000FFF732FC032002E0641CE4B20120FFF747
:102340008BFF01210020FFF766FC002802D0642CDF
:10235000F2D310E0642C0ED2002404E0641CE4B23A
:102360000120FFF779FF01210020FFF754FC00282E
:1023700003D0F02C04D3012038BDF02CEED3FAE7C3
:10238000002038BD38B50546012000230322014650
:10239000009012021846FFF7FFFB0520FFF75CFFD5
:1023A0000024E807C00F6D0800280CD00121002090
:1023B000FFF7CDFB0520FFF74FFF01210020FFF7BE
:1023C000CDFB46200BE001210020FFF7C0FB46209B
:1023D000FFF742FF01210020FFF7C0FB0A20FFF7B3
:1023E0003BFF641CE4B2082CDBD338BD10B5FFF70B
:1023F00077FFFFF795FFCC20FFF7C4FF4420FFF7DE
:10240000C1FF1748FFF728FFFFF76AFFFFF788FFB4
:10241000CC20FFF7B7FFBE20FFF7B4FFC820FFF7BF
:102420001BFFFFF728FF0D4C6070FFF724FF2070A3
:102430006178000208430005000DA08001F02EFA2B
:1024400010BD10B5FFF74CFFFFF76AFFCC20FFF778
:1024500099FFBA20FFF796FF10BD000020900020E2
:102460007017000070B516460C46054601280FD1BE
:1024700006221749174801F04FFC002808D0062211
:102480001449304601F094FB06202070002070BDF6
:1024900032462146284601F045FC70BD70B50E4815
:1024A0000E49C405228880252A4322800C4A53897C
:1024B0001B0701D4401EFAD20A4A012010600622EE
:1024C000044801F075FB2088A843208070BD0000FF
:1024D000383E030059840020A0860100D47F040008
:1024E0002000005000800040F8B5594F0026786960
:1024F0000090FEF7F2F9574C002802D1207902280B
:1025000001D100200090FEF7BCFB00280DD101F0A6
:102510000FFC002809D0E0780126002805D0052509
:102520002D07A88AC00701D004268EE001F03EFAEC
:10253000002838D12079002801D138690090464818
:102540008069002801D078690090A1786846009FD2
:1025500001F0F4FB002878D0A178684601F038FA41
:10256000002872D001F0F0FB00286ED0FF20009709
:102570002D300127BF07396A8142FCD3A178684614
:1025800001F0DCFB00280CD0A178684601F020FAAD
:10259000002806D0314A832012780099022A03D0FD
:1025A00003E001F0D7FB50E0B5202D4A1378012B52
:1025B00000D1213000231370FB6B0F229B0A9B027A
:1025C0001343FB63FA6B274B80021A400243FA6302
:1025D000F86B3722C002C00A92051043F863042644
:1025E000002901D0091D009100986421C00201F06A
:1025F000CDFA1D49401E08602179002900D0012133
:1026000001F0AEFB1948C06A80470024FEF766FB64
:10261000002808D0288830210843288028880321F2
:10262000084328800124386B0004C00FFBD01048F9
:102630000168C905FCD5002C01D0FFF78BF801F02B
:1026400095FB28898021884328813046F8BD000009
:10265000A0020020C6060800A805080054020800D1
:1026600069840020FF03E0FF608400201C0708004D
:1026700000020040F8B50546AF48B149047BAF48B9
:10268000C969006840300089884201D1002002E019
:102690000002401C80B2060A1AE0A7480027203832
:1026A000816A2E20604308188078C0060AD001F0A5
:1026B00063FB0146A34AB00010586422825691423F
:1026C00000DA0127384600F0A9FF641C6407640F94
:1026D00028466D1EEDB20028DFD1F8BD70B501258A
:1026E000AD07AC6B2046FEF79CFA974901F04EFA15
:1026F00027221201511A00D10121944A5060116021
:10270000286B082188430843286391480460914856
:102710000068002802D0A04200D200BE70BD10B5F3
:10272000052000074189890708D041898908890067
:10273000418189494A88520852004A800189802291
:1027400011430181018A042291430182818A890710
:10275000FCD501F017FB012080070169490700D56E
:1027600000BE01694907FCD510BDF8B57B4EF08865
:1027700000282DD10120F080794908200880052704
:102780003F077889800720D0B88A400701D5FEF737
:1027900065F9714D2888802108432880714CFF20FD
:1027A000608004202080FEF7CAFF7D21C900E088F8
:1027B000A288000480188842F9D905202080B088BA
:1027C000788029888020814329806749102008600B
:1027D000F8BD70B5FEF7BEFFFFF7A1FF00255F4C07
:1027E0000520E5800007418A8022914341825C48B0
:1027F000018949084900018101F0ACFA01208007F4
:10280000816904221143816101F0C2FA5649102006
:1028100080310126086001F0C1FA01F0C5FA4E4886
:1028200025704089800505D56078002802D14F4881
:102830006670008870BD10B501F0BCFA00F074F845
:1028400046490120087010BD10B501208007008A9C
:10285000000601D500F068F810BD394810B54030C9
:10286000007BFFF707FF01F0ABFA10BD10B50124A4
:10287000A407208A000729D53D49012008702F4868
:102880004E2300682E4A4030018912685943394B63
:10289000C918515AC07C090A081AC0B2FFF7EAFEEB
:1028A00001F094FA2068400040086100084320606D
:1028B0002068C00FFCD12548803001680906090E48
:1028C00001D00121016025490420087010BD70B5B8
:1028D0002948008885062948AD0E446818484030CC
:1028E000006B0078002802D1284601F075FA2448D0
:1028F00000891A4EC00507D520060ED5E0070CD07A
:10290000284601F06FFA03E0200606D5E00704D060
:1029100017490120486003203070200403D5E005EA
:1029200001D50220307070BD10B50C4901208870AF
:1029300001F05EFA10BD0000380308006C030800C7
:10294000E00100204C03080071020000400000403C
:1029500064840020608400202000005068840020EF
:10296000003300500016005000E200E00015005057
:10297000289000204A00080000200050000200407B
:10298000002C005010B5DC21484801F037FA4849C6
:10299000362001F039FA0021362001F091F810BDFF
:1029A000FEB5002668468680404C009660896A46DF
:1029B000801C80B201A901F02DFA684680880228A7
:1029C00012D1009800280FD0007800280CD0E188A0
:1029D00001233622374801F021F900990978218234
:1029E000067001F02DF907E0E68132482682E18881
:1029F0003622401C01F014FA0098002800D000781C
:102A000069460881A6810A2702AA0221032001F053
:102A10000DFA00256189A800C01D081880B202AA1D
:102A2000022101F003FAA0896D1C401CA081BD4267
:102A3000F0DB68460089002800D1A681FEBDFEB506
:102A40000646002768468780184C0097E089618910
:102A50008000C01D08183D4680B26A4601A901F0F9
:102A6000D9F90098002817D00088002814D0E089F0
:102A700061898000801D081880B23246142101F05F
:102A8000D5F9E08961898000801D081882B2002193
:102A9000204600F033F90127E089401C80B2E08134
:102AA0000A2800D3E5813846FEBD0000BC80002026
:102AB000C842002003D800003EB50020C0437F4C30
:102AC0000290E380088860817D4801900092204652
:102AD00000232D2202A90A3001F0AEF905466089D3
:102AE000002101F0AFF9002D03D10121362000F0C3
:102AF000E7FFE18801233622724801F08FF8057064
:102B000001F09EF800203EBDF8B5002568466B4CEC
:102B1000058062802380E3800E46488801F098F9A2
:102B2000207170882081E581A58167482582007920
:102B30006649801F087060896A46801C80B2022145
:102B400001F074F960896A46C01D80B2022101F06B
:102B50006DF96089012101F075F90221362000F03C
:102B6000AFFF0020F8BD10B50121362000F0A8FF0E
:102B7000002010BDFFB583B0002768464F4E078187
:102B8000308A002852D00498504905784E480024D5
:102B900000790870009442E00197F18970898900FA
:102BA000C91D401880B201AA02A901F033F90198A9
:102BB00000281CD00088002819D0F0897189800075
:102BC000801D0818214614225143049A80B28A18A5
:102BD000921C142101F02AF9F08971898000801D6E
:102BE000081882B20021354800F088F802E002217E
:102BF000684601813548641C01786D1E491E0170CC
:102C0000F089A4B2401C80B2ADB2F0810A2801D391
:102C1000F7810AE00098401C00900A2805DA002D90
:102C200003D02A4800780028B6D1002007B0F0BDB4
:102C3000F8B500200090214D0C4609886889081AD3
:102C4000022802D0072837D132E0FFF7A9FE234639
:102C50000833A288618820881E4601F0FFF8218889
:102C6000287A002201F000F962883146684600F0B7
:102C70009FFF6846007801281ED1FFF7E2FBFFF7AF
:102C8000B5FB00F012FE11496A464880694648705B
:102C9000000A087068890421801D80B201F0C6F81E
:102CA00068890021801D82B2044800F027F803E003
:102CB000287A002201F0D8F80020F8BDBC8000205E
:102CC0000443002006D800001E05080030900020B4
:102CD000F8B514460F461E4605464288018806236D
:102CE000204600F09BFF0446287901F0C3F82080BD
:102CF00027716680204600F0A3FFF8BD70B514462A
:102D0000428800790D4601020C310423264800F068
:102D100085FF002D01D0132100E0122101704480B5
:102D200000F08EFF70BD0A880270120A42708A7825
:102D30008270CA78C2700A7902714A7942718979BF
:102D40008171072070474278037812021A430A8083
:102D500082788A70C278CA7002790A7142794A719F
:102D6000807988710720704710B5FFF70BFE10BD02
:102D700070B5064615460C46362000F07DFE02284A
:102D800005D1E2B236232946304601F079F8142005
:102D900000F072FE022805D1E2B214232946304623
:102DA00001F06EF870BD00000D30000010B501F0AC
:102DB0006DF8254901F070F82448081810BDF8B5E1
:102DC000234D0646A876002401F060F82919641CFA
:102DD000E4B20874082CF7D300241027381BB04243
:102DE00001DD002007E001F051F8C117090E0918B4
:102DF000090A0902401A2855641CE4B2102CEDD3CC
:102E000001F044F82883F8BD10B52421104800F0E3
:102E1000F5FF00F0F6F910BD10B50E4802238078DA
:102E2000322201020E310C4800F0F8FE0D21017033
:102E3000074920318978417000F002FF03213220D8
:102E400000F03EFE10BD0000A0BB0D00A0860100FA
:102E500070840020948400201A38000010B50846C1
:102E600009781C460B0000F00DFE08052020200804
:102E7000181B1E2000F0C2FA17E04178012904D087
:102E8000002902D0022903D00FE000F0B8FA0CE0CC
:102E90001146204600F0BCFA07E000F0B1FA04E069
:102EA00000F0AFFA01E000F0ADFA002010BD10B55F
:102EB0000878304C801E030000F0E4FD0202141874
:102EC0008878A070C0070AD02B492A4A4879203A4E
:102ED000D07628480622891D001F00F069FE00F008
:102EE00092FA03E000F06FF80020A070002010BDFF
:102EF000F8B518460D4601461223204800F08EFE14
:102F00000446284600F080FA0027002821D0194EF8
:102F1000B078C0071DD030460822A91C103800F038
:102F2000FBFE002815D130462038018B2A889142BB
:102F30000FD101212170807E60743146102220392A
:102F4000601C00F035FEB07800F04EF800F05FFA3B
:102F500000E02770204600F073FE2078002801D1A1
:102F600000F031F80020F8BD10B500F04FFA002055
:102F700010BD0000908400209484002018380000C8
:102F800038B50124684604700C21494800F036FF2A
:102F9000474D6946EC702A1D352000F083FF00285C
:102FA00000D02C7100F02CF94249322000F02CFFA7
:102FB0000021322000F084FDFFF726FF38BD10B558
:102FC00000F0DBF910BD10B53948022380783222B9
:102FD00001020E31384800F021FE01210170132159
:102FE000417000F02DFE10BD10B5044630482C2372
:102FF00080783222010230480E31801E00F00EFE31
:1030000001462030047200224272084600F018FE89
:1030100010BD10B5502332220D21284800F0FEFDCE
:10302000044600F021F9204600F00AFE0221322079
:1030300000F046FD10BD214810B5012332220D21BC
:103040000B3800F0EBFD0221017000F0F9FD10BD1E
:1030500010B500F0A6F910BD194B10B59A4201D970
:103060001A4602E0002A00D1012200F021FF10BD23
:10307000F8B50646114815460F46252332220D2184
:10308000C01C00F0CBFD044601202077204606221C
:1030900039461D3000F08CFD2320065565822582BF
:1030A000204600F0A8F9204600F0CAFDF8BD000057
:1030B0009484002068450020043800000E3400008D
:1030C0003075000010B5104600F0D6FC002809D17C
:1030D000012332220D21484800F0A0FD012101709A
:1030E00000F0AEFD002010BD70B5087815460F2821
:1030F0002DD008DC01280DD0022834D003281CD0A4
:103100000E2830D11FE0102825D0112823D01228F6
:1031100029D123E04878002825D1374822233222BC
:103120000D21801C00F07AFD04460146284600F07F
:1031300039F9204600F084FD15E04878002812D1C6
:1031400000F03BF90FE0487800F04EF90BE04878CA
:1031500000F04BF907E000F04DF904E0487844280E
:1031600001D100F04AF9002070BD70B51C46104630
:103170000D4600F081FC022805D12049200A887004
:10318000284600F03FF8002070BD70B5087815465D
:103190000C460A2810D1104600F06EFC04280BD112
:1031A0006078002802D000F01DF905E005212846CE
:1031B00000F086FC00F017F9002070BD10B5104635
:1031C00000F0BCF8002010BD10B510460C4600F011
:1031D00053FC012808D12078002805D1FFF7EFFE25
:1031E000002801D000F002F9002010BD10B50846FB
:1031F00000F002F9002010BD023400009484002089
:103200007047704770B50446C9488078FF2828D0B9
:103210003221C84800F05AFC0521322000F050FC51
:10322000C448092332223F21401F00F0F7FC054625
:10323000012028702078A870607A687021460622E4
:103240000A31E81C00F0B4FC284600F0F9FC608864
:1032500000F0C8F900F098F9B7488078FFF7C4FE8D
:1032600070BDFFF7D6FE70BDF0B5044693B00E20DA
:103270002070002565709620A081E08107202074D1
:10328000012060741C20E074274622461F2020374E
:10329000143238741646511E0B2000F003FE00282D
:1032A00005D02A46E574A5A1304600F081FC2246EF
:1032B0003132511E0C20119200F0F4FD002805D08F
:1032C0003D742A469FA1119800F072FCE07C1A21FF
:1032D000081A45B2002D2FDD3E206946087001AA6C
:1032E000022000F0DFFD002806D00D2268460270A3
:1032F00095A101A800F0E2FD6846007800281BD0E7
:10330000A84200D2054668460570E07C6D1C8555D4
:10331000E27C2046092115301154E17C401C0B1839
:103320006846027801A9184600F042FC6846007819
:10333000E17C801C0818E07413B0F0BD10B50C4699
:1033400000F09AFB032803D0052801D0042813D1EC
:103350000221322000F0B4FB7F490020087075483C
:10336000092332223F21C01E00F058FC21788170D1
:1033700000F066FCFFF74DFE10BD70B500247749E4
:10338000022008706A4DE878022807D2012801D18E
:1033900000F0EEF8E878401CE87000E001242046D8
:1033A00070BD7047032008700A20487000204882D2
:1033B000087548751720C882704710B50121322062
:1033C00000F07EFBFFF7FBFD002801D0FFF721FE98
:1033D0005848042332223F210A3800F01FFC00F035
:1033E0002FFC10BD704770477047704710B5FFF74E
:1033F00010FE10BD704770477047704770477047A8
:10340000704770477047704701207047704770479A
:10341000704710B518460C46014646480123322233
:103420000B3800F0FBFB2178491C017000F008FC10
:10343000002010BD10B5087800F00AFD01020E3121
:1034400002233222464800F0E9FB012101701321DA
:10345000417000F0F5FB002010BD70B500243F4D19
:1034600026460C351420604340190680801C2246F5
:10347000122100F029FD641C202CF3DB70BD10B577
:103480004878354C012801D0002005E0207801283B
:1034900001D0FFF7E2FF01202070002010BD10B521
:1034A000322000F0E9FA052814D122480E233222F6
:1034B0003F21401E00F0B2FB0446002020701C4853
:1034C0000C22007860702749A01C00F071FB204698
:1034D00000F0B6FB10BD0188491C01807047F8B5AB
:1034E0001D481E4C0078012821D11F4F1F4D264634
:1034F0000C360097A06869898000801D0A186068F2
:103500001421484380191B2300F0D1F800280EDD58
:103510006068401C6060202801DB00206060A068BB
:10352000401CA0600A28E4DB0020A060E1E7F8BDB1
:10353000948400200DC80000908400200701031827
:103540000000000002FF00004441313435383020D3
:1035500054454D504C000000A2840020988100206A
:1035600004380000DE910020D7340020BC80002009
:1035700010B50223322236210B4800F04FFB002108
:10358000018000F05DFB10BD10B53621042332220E
:10359000880200F043FB3221018004490988418000
:1035A00000F04EFB10BD000005D800009484002000
:1035B00010B510460C4600F05FFA012809D13222FE
:1035C00001231146900200F029FB2178017000F0E0
:1035D00037FB002010BD10B5487900F026F8002018
:1035E00010BD00001121821F0C2A05D2A34A410000
:1035F0008A18203A1421515EA14A508088B2108066
:10360000411C083A1160704710B512219D4800F026
:10361000F5FB9D489B498088888110BD002803D018
:1036200098494889401C488170479649CA88521C6D
:10363000CA800A8910180881704770B5914CE089DA
:10364000401CE081E0898E494D88FF21684391311B
:1036500088421FDB12222146881800F0A9FA1221A5
:10366000204600F0CBFB214612318889A081A08939
:10367000C889122268430880A089101A4A88121A41
:103680004A808B88142242439B1A8B806080A280E0
:103690000120087470BD10B5FF2191317B4800F006
:1036A000B1FA7A480021001F4170017010BDF0B5D9
:1036B000764D964602462D1F68782E1D07018C46D2
:1036C000BC19E17B002902D00020C043F0BD0121DC
:1036D000E173F2516146A17371466160A38105995E
:1036E000A160411CC9B269701929EFD3002169702A
:1036F000F0BD192802D30020C04370476349000180
:103700004018C07B704770B5044661482C23807810
:10371000322201020520491D800200F07FFA0500D7
:1037200019D00420A880207BA871A0882881A27BC2
:103730006A8128460C30216800F03AFA284600F0E9
:103740007FFAA07B00F0D6FB0020E073A268002A7D
:1037500001D003CC904770BDF8B54C4C0146241FF6
:103760002078251D00014019C07B002700281CD0AF
:1037700045488088012818DD461A14E020780001A9
:103780004019FFF7C0FF20787F1C401CC0B2761E96
:103790002070192801D3002020700006000D401968
:1037A000C07B002801D0002EE8DC3846F8BD70B59B
:1037B000354933488C8812210B1B3449304A091F84
:1037C00008388D78083A40681268002D01D0A01A98
:1037D000401C012800DA0120934201DD012200E0B3
:1037E00000228A70C0B2FFF7B7FF264A211A9181E2
:1037F00070BD70B52449244A8C88214912260839A5
:10380000096892880020331B1E4D92B28B4209DA60
:10381000112C04DA1D4B1B1F9B78012B02D0701A50
:1038200002D004E0AA8170BD122900D00120C0B2EC
:10383000FFF792FF211AA98170BDF8B5154C00273A
:103840002078154E3D46012803D03168012909D062
:1038500012E0FFF7CEFF0746022035602070FFF729
:10386000ECFE09E0022807D1FFF7A1FF074635600B
:103870002078022800D125703846F8BD0046002087
:1038800054460020CC9100201E0508003C900020EA
:1038900094840020289000202C90002010B5002255
:1038A0009623114600F01DF810BD41004002012290
:1038B000400AD205090E80187F2901DA00207047DE
:1038C000962903DC9622511AC840704796398840E1
:1038D0007047002904DA401C490001D1400840002B
:1038E000704770B40024050C05D11024000402D1E7
:1038F000002922D01124050E01D108340002050F41
:1039000001D1241D0001850F01D1A41C80000028D5
:1039100001DB641C4000002908D020252E1B0D4629
:10392000F540A14000D00121294308431B1B01069B
:10393000DB1D000A002B02DA002070BC7047DB059B
:10394000181880180029F8DA401C4900F5D170BC1D
:103950004008400070470000064C0125064E05E077
:103960002046E36807C82B4398471034B442F7D386
:10397000FCF76AFD184600204846002003B40148C1
:10398000019001BD551B020003B40148019001BD27
:103990000F3B030003B40148019001BDCB2C030091
:1039A00003B40148019001BD0990020003B401482D
:1039B000019001BDC12D030003B40148019001BD78
:1039C0000921030003B40148019001BDC92D030082
:1039D00003B40148019001BD2B69020003B4014802
:1039E000019001BDEB31030003B40148019001BD1A
:1039F0003D32030003B40148019001BDD72103000B
:103A000003B40148019001BD1F21020003B4014825
:103A1000019001BD5D80020003B40148019001BD29
:103A20002F2F030003B40148019001BD998F0200BC
:103A300003B40148019001BD938F020003B4014813
:103A4000019001BDCD8C020003B40148019001BD7D
:103A5000418F020003B40148019001BD27680200B4
:103A600003B40148019001BD3968020003B4014864
:103A7000019001BDB780020003B40148019001BD6F
:103A8000B326030003B40148019001BDFD3D0300CE
:103A900003B40148019001BD197D020003B401483F
:103AA000019001BD0522020003B40148019001BD4F
:103AB0002F22020003B40148019001BD0B910200C6
:103AC00003B40148019001BD3126030003B401484D
:103AD000019001BDA528030003B40148019001BD78
:103AE000D5AF020003B40148019001BDA1A50200B9
:103AF00003B40148019001BDE3A5020003B40148ED
:103B0000019001BD87A8020003B40148019001BDE6
:103B1000A7A9020003B40148019001BD93AA0200C5
:103B200003B40148019001BD95AB020003B4014804
:103B3000019001BDF9AB020003B40148019001BD41
:103B400069AC020003B40148019001BD17AD020049
:103B500003B40148019001BD77AD020003B40148F0
:103B6000019001BDF1AD020003B40148019001BD17
:103B700085AE020003B40148019001BD11AF0200FF
:103B800003B40148019001BD3350020003B4014861
:103B9000019001BDA73A030003B40148019001BDA3
:103BA0005548020003B40148019001BD1F500200B6
:103BB00003B40148019001BD213B030003B4014857
:103BC000019001BD7F0C030003B40148019001BDC9
:103BD000AB0C030003B40148019001BDBF220200F9
:103BE00003B40148019001BDEB26030003B4014872
:103BF000019001BD3524030003B40148019001BDCB
:103C0000DD20030003B40148019001BD533B0300D4
:103C100003B40148019001BD9D20030003B4014895
:103C2000019001BDB123030003B40148019001BD1F
:103C300049E5020003B40148019001BDF9E3020027
:103C400003B40148019001BDE123030003B401481E
:103C5000019001BD4BCD020003B40148019001BDAC
:103C600099D1020003B40148019001BDABD002001C
:103C700003B40148019001BD69D0020003B40148BA
:103C8000019001BD77CF020003B40148019001BD4E
:103C900001CC020003B40148019001BD29CC02000F
:103CA00003B40148019001BD15D2020003B40148DC
:103CB000019001BD8DD2020003B40148019001BD05
:103CC000B938020003B40148019001BDCD4402009F
:103CD00003B40148019001BD7758020003B40148C4
:103CE000019001BDD722030003B40148019001BD3A
:103CF0002D42020003B40148019001BD8D3D030037
:103D000003B40148019001BDF38E020003B40148E1
:103D1000019001BD218E020003B40148019001BD54
:103D2000773B030003B40148019001BDD72903008C
:103D300003B40148019001BD7920030003B4014898
:103D4000019001BD2129030003B40148019001BD88
:103D5000D990020003B40148019001BDF79302001D
:103D600003B40148019001BDC768020003B40148D3
:103D7000019001BD0D2C030003B40148019001BD69
:103D80004975020003B40148019001BD652C030090
:103D900003B40148019001BDDB2E030003B40148C8
:103DA000019001BD231D020003B40148019001BD33
:103DB000C32C030003B40148019001BD1531030079
:103DC00003B40148019001BD3B66020003B4014801
:103DD000019001BD2B66020003B40148019001BDB2
:103DE000038D020003B40148019001BDCF8F020092
:103DF00003B40148019001BD1B66020003B40148F1
:103E0000019001BD533B030003B40148019001BD83
:103E10008725030003B40148019001BDA59B020062
:103E200003B40148019001BD0D24030003B401480F
:103E3000019001BD6D9B020003B40148019001BDDA
:103E4000459F020003B40148019001BD7B9C020024
:103E500003B40148019001BDB7E3020003B4014877
:103E6000019001BD2B9B020003B40148019001BDEC
:103E7000F3AF020003B40148019001BDE3E3020087
:103E800003B40148019001BD95E3020003B4014869
:103E9000019001BDFD3A030003B40148019001BD4A
:103EA000D33A030003B40148019001BDD1290300B6
:103EB00003B40148019001BD2528030003B4014863
:103EC000019001BD213B030003B40148019001BDF5
:103ED000453B030002E008C8121F08C1002AFAD1BE
:103EE00070477047002001E001C1121F002AFBD17A
:103EF0007047000003494A88521C4A808A8810187B
:103F000088807047CC9100200101000A04280A042F
:103F10000203AA0055032A00A001FFFF2C010000A4
:103F20000A000000857502000B0000006B7A020099
:103F30000C000000CB7902000D000000A17502000A
:103F40000E000000D37502000F000000F37902009C
:103F500010000000FD75020012000000177602003C
:103F6000110000005D760200130000008776020059
:103F700014000000B176020015000000D77802009E
:103F800016000000097902001B000000F77602000D
:103F90004D0000005779020017000000217A02004E
:103FA0001800000013780200190000005378020086
:103FB0001A000000957802001C0000008D7A0200B3
:103FC0001D000000AD7A02001E000000437A0200CE
:103FD0001F0000007377020020000000C37702007A
:103FE00021000000F37A020049000000317B02004A
:103FF00000080000690D0020010000003B7B02006A
:1040000009000000537B0200050000007D7B0200D8
:1040100006000000A77B0200020000000B7C0200EB
:1040200007000000CF7B020000000000F97B0200C7
:10403000030000006B7C0200040000008D7C020085
:1040400008000000F77C02004C0000006D7E0200BA
:10405000203F002026000000544303005040002071
:10406000320408000600010000000000B0400020FB
:10407000A404080002000100750E0020650F002056
:104080004D1300200B140020391400205110002083
:10409000B510002015110020FFFF0000070E0020C2
:1040A00002FC00007D92020003FC000089920200E5
:1040B0009840002003000000050400004D16002079
:1040C000060400009339020007040000D9390200F9
:1040D000080400001F3A020002040000B73B02007F
:1040E00000040000093C0200040400006F3C0200D0
:1040F00003040000D93C0200010400004B3D020013
:1041000009040000D73A02000A040000413B020003
:104110000B0400004D3F0200210400009942020000
:1041200026040000EB47020000080000EF3F0200F9
:104130003F000000CF4102004B000000C93D0200DB
:104140004E000000213E0200230400007F3E0200DA
:1041500024040000B93E0200270400009B43020033
:1041600028040000C5430200250400003D4302006E
:104170002B040000F143020031040000114402004E
:104180003204000059440200350400008D4402004E
:10419000290400006B1600202A04000025450200B7
:1041A0002C0400006D4502002D040000F7450200BC
:1041B0002E0400002B4602002F040000634602007C
:1041C0003304000093460200340400001547020047
:1041D0003604000045470200300400009747020003
:1041E000010800002D42020001080000891600208D
:1041F00000080000EF3F0200000000000000000087
:1042000000000000000000000000000000000000AE
:10421000000000000000000000000000000000009E
:10422000000000000000000000000000000000008E
:10423000000000000000000000000000000000007E
:10424000000000000000000000000000000000006E
:10425000000000000000000000000000000000005E
:10426000000000000000000000000000000000004E
:10427000000000000000000000000000000000003E
:10428000000000000000000000000000000000002E
:104290000000000000000000E841002002000000D3
:1042A0000000000000000000B840002026000000D0
:1042B000F8410020A8420020640308001600060010
:1042C000FF003F00FF03FF0148450020604500203C
:1042D0003490002003000100F0FF060000F1FF16FB
:1042E0000000F4FF456E61626C6520537472656175
:1042F0006D4461746120446576696365004461744E
:10430000610000000028010002000200D8420020E5
:104310000328010005000500DA420020F1FF090032
:104320000400000000000000022909020200000051
:10433000000000000129010018001800E4420020DC
:104340000328010005000500DF420020F4FF0902F8
:104350000400000000000000022909020200000021
:10436000000000000129010004000400FD420020BB
:10437000000000000000000000000000000000003D
:10438000000000000000000000000000000000002D
:10439000000000000000000000000000000000001D
:1043A000000000000000000000000000000000000D
:1043B00000000000000000000000000000000000FD
:1043C00000000000000000000000000000000000ED
:1043D00000000000000000000000000000000000DD
:1043E00000000000000000000000000000000000CD
:1043F00000000000000000000000000000000000BD
:1044000000000000000000000000000000000000AC
:10441000000000000000000000000000000000009C
:10442000000000000000000000000000000000008C
:10443000000000000000000000000000000000007C
:10444000000000000000000000000000000000006C
:10445000000000000000000000000000000000005C
:10446000000000000000000000000000000000004C
:10447000000000000000000000000000000000003C
:10448000000000000000000000000000000000002C
:10449000000000000000000000000000000000001C
:1044A000000000000000000000000000000000000C
:1044B00000000000000000000000000000000000FC
:1044C00000000000000000000000000000000000EC
:1044D00000000000000000000000000000000000DC
:1044E00000000000000000000000000000000000CC
:1044F00000000000000000000000000000000000BC
:1045000000000000000000000000000000000000AB
:10451000000000000000000000000000000000009B
:1045200005D80000B92A002000D80000092B00207F
:1045300001D80000672B002002D80000752B002056
:104540000E300000312C002020450020010000002A
:104550002845002001000000304500200300000035
:10456000000000000000000000000000F8450020EE
:10457000A08400200600020001340000C5300020A5
:1045800000340000E9300020003800008B310020AA
:10459000013800006B31002003380000BD310020DD
:1045A00000C80000C931002010340000ED310020A7
:1045B000133800005D2E002015380000AF2E0020BB
:1045C00017380000F12E002019380000692F002054
:1045D00001C800001334002009C800003534002051
:1045E0000BC800007F34002006D80000B135002041
:1045F00007D80000D73500207845002010000000C3
:104600000700080009000A000A000C000D000D0058
:104610000F000F00100011005846002000800020FD
:10462000A4040000E43E0020584600202090002012
:10463000D0010000E43E002068070800202A08009E
:10464000E0050000E43E0020800C000008000000AF
:08465000010000000700060054
:040000052000044192
:00000001FF
